:100000000C9435000C945D000C945D000C945D0024
:100010000C945D000C945D000C945D000C945D00EC
:100020000C945D000C945D000C945D000C945D00DC
:100030000C945D000C945D000C945D000C945D00CC
:100040000C947F000C945D000C945C010C94AA014C
:100050000C945D000C945D000C945D000C945D00AC
:100060000C945D000C945D00160311241FBECFEFAD
:10007000D4E0DEBFCDBF11E0A0E0B1E0ECE3F8E0FA
:1000800002C005900D92A032B107D9F711E0A0E2AD
:10009000B1E001C01D92A33DB107E1F710E0CAE64F
:1000A000D0E004C02297FE010E941804C836D10790
:1000B000C9F70E946C030C941C040C94000081EBA3
:1000C00091E060E071E00E94E10368EE73E080E09F
:1000D00090E00E94C70008950F931F9301EB11E079
:1000E000C80140E855E260E070E00E94E501C80107
:1000F00069E071E00E94E1031F910F9108951F9242
:100100000F920FB60F9211242F933F938F939F93CB
:10011000AF93BF938091240190912501A091260176
:10012000B0912701309128010196A11DB11D232F07
:100130002D5F2D3720F02D570196A11DB11D209365
:1001400028018093240190932501A0932601B09368
:1001500027018091200190912101A0912201B0916D
:1001600023010196A11DB11D8093200190932101CF
:10017000A0932201B0932301BF91AF919F918F91E2
:100180003F912F910F900FBE0F901F9018959B01DC
:10019000AC017FB7F8948091200190912101A0914A
:1001A0002201B091230166B5A89B05C06F3F19F0ED
:1001B0000196A11DB11D7FBFBA2FA92F982F8827A7
:1001C000860F911DA11DB11D62E0880F991FAA1F06
:1001D000BB1F6A95D1F7BC012DC0FFB7F894809181
:1001E000200190912101A0912201B0912301E6B557
:1001F000A89B05C0EF3F19F00196A11DB11DFFBFDF
:10020000BA2FA92F982F88278E0F911DA11DB11DE0
:10021000E2E0880F991FAA1FBB1FEA95D1F7861B42
:10022000970B885E9340C8F22150304040405040C8
:1002300068517C4F211531054105510571F608952E
:10024000789484B5826084BD84B5816084BD85B5B1
:10025000826085BD85B5816085BDEEE6F0E0808178
:1002600081608083E1E8F0E0108280818260808399
:10027000808181608083E0E8F0E08081816080831C
:10028000E1EBF0E0808184608083E0EBF0E080814E
:1002900081608083EAE7F0E08081846080838081F0
:1002A0008260808380818160808380818068808398
:1002B0001092C100089508951F920F920FB60F92E9
:1002C00011242F933F934F938F939F93EF93FF931B
:1002D0008091C00082FD1DC04091C600209169013F
:1002E00030916A012F5F3F4F2F73307080916B0107
:1002F00090916C012817390771F0E0916901F09134
:100300006A01E75DFE4F408330936A0120936901E3
:1003100002C08091C600FF91EF919F918F914F9104
:100320003F912F910F900FBE0F901F901895E09165
:10033000BD01F091BE01E05CFF4F81919191208160
:100340003181821B930B8F739070892B11F00E9467
:100350005B0108951F920F920FB60F9211242F93F5
:100360003F938F939F93EF93FF932091AD01309133
:10037000AE018091AF019091B0012817390731F497
:100380008091C1008F7D8093C10014C0E091AF01C6
:10039000F091B001E359FE4F20818091AF0190911F
:1003A000B00101968F7390709093B0018093AF016C
:1003B0002093C600FF91EF919F918F913F912F91D4
:1003C0000F900FBE0F901F901895AF92BF92DF92C3
:1003D000EF92FF920F931F93CF93DF93EC017A017B
:1003E0008B01DD24403081EE580780E0680780E013
:1003F000780711F0DD24D39491E0A92EB12CEC897B
:10040000FD89DD2069F0C50108A002C0880F991F91
:100410000A94E2F7808360E079E08DE390E005C024
:10042000108260E874E88EE190E0A80197010E94D4
:10043000F403215030404040504056954795379541
:10044000279580E12030380720F0DD2011F0DD24F1
:10045000D6CFE889F9893083EA89FB89208319A2FC
:10046000EE89FF89408121E030E0C9010C8C02C097
:10047000880F991F0A94E2F7482B4083EE89FF8981
:100480004081C9010D8C02C0880F991F0A94E2F7C0
:10049000482B4083EE89FF894081C9010E8C02C040
:1004A000880F991F0A94E2F7482B4083EE89FF8951
:1004B00080810F8C02C0220F331F0A94E2F720952F
:1004C00028232083DF91CF911F910F91FF90EF9010
:1004D000DF90BF90AF900895DC011C96ED91FC91E8
:1004E0001D97E05CFF4F2191319180819181281B04
:1004F000390B2F733070C9010895DC011C96ED9102
:10050000FC911D97E05CFF4F20813181E054F04069
:10051000DF01AE5BBF4F8D919C9111972817390772
:1005200019F42FEF3FEF07C08D919C91E80FF91F51
:100530008081282F30E0C9010895DC011C96ED91DF
:10054000FC911D97E05CFF4F20813181E054F04029
:10055000DF01AE5BBF4F8D919C9111972817390732
:1005600019F42FEF3FEF10C08D919C911197E80F78
:10057000F91F20818D919C91119701968F73907036
:1005800011969C938E9330E0C9010895DC019196F9
:100590008C919197882339F05496ED91FC91559761
:1005A000808186FFF9CF91961C920895CF93DF93B7
:1005B000EC01EE85FF85E05CFF4F20813181E05446
:1005C000F0402F5F3F4F2F733070DF01AE5BBF4FA6
:1005D0008D919C91119728173907D1F3E05CFF4F5B
:1005E00080819181E054F040E80FF91F6083EE852F
:1005F000FF85E05CFF4F31832083EE89FF892081F6
:1006000081E090E00F8C02C0880F991F0A94E2F7F6
:10061000282B208381E089A3EC89FD898081806477
:10062000808381E090E0DF91CF9108951092B40132
:100630001092B30188EE93E0A0E0B0E08093B501A2
:100640009093B601A093B701B093B80183E191E014
:100650009093B2018093B10189E291E09093BE0141
:100660008093BD018DE691E09093C0018093BF011E
:1006700085EC90E09093C2018093C10184EC90E0FE
:100680009093C4018093C30180EC90E09093C601E5
:100690008093C50181EC90E09093C8018093C701DD
:1006A00082EC90E09093CA018093C90186EC90E0BF
:1006B0009093CC018093CB0184E08093CD0183E0C3
:1006C0008093CE0187E08093CF0185E08093D001B5
:1006D00081E08093D1010895CF93DF930E942001A0
:1006E0000E946C00C7E9D1E00E945F002097E1F30F
:1006F0000E949701F9CFCF92DF92EF92FF920F9372
:100700001F93CF93DF937C016B018A01C0E0D0E09F
:100710000FC0D6016D916D01D701ED91FC91019053
:10072000F081E02DC7010995C80FD91F0150104075
:100730000115110571F7CE01DF91CF911F910F9136
:10074000FF90EF90DF90CF900895EF92FF920F937C
:100750001F938C01DC01ED91FC910190F081E02D63
:100760006DE009957C01D801ED91FC910190F0813B
:10077000E02DC8016AE009959C012E0D3F1DC901BD
:100780001F910F91FF90EF900895CF93DF93EC01AD
:100790006115710519F420E030E00FC0DB010D9008
:1007A0000020E9F71197A61BB70BE881F9810280B9
:1007B000F381E02DAD0109959C01C901DF91CF9135
:1007C0000895EF92FF920F931F937C010E94C5033F
:1007D0008C01C7010E94A503080F191FC8011F91B2
:1007E0000F91FF90EF900895A1E21A2EAA1BBB1B58
:1007F000FD010DC0AA1FBB1FEE1FFF1FA217B307ED
:10080000E407F50720F0A21BB30BE40BF50B661F02
:10081000771F881F991F1A9469F7609570958095C6
:1008200090959B01AC01BD01CF010895EE0FFF1F14
:0C0830000590F491E02D0994F894FFCF9E
:10083C0048692031303A30330048656C6C6F0000E9
:10084C00000000D6027B036C029D027D02C60200F2
:00000001FF
