:100000000C9446010C946E010C946E010C946E01DC
:100010000C946E010C946E010C946E010C946E01A4
:100020000C946E010C946E010C946E010C946E0194
:100030000C946E010C946E010C946E010C946E0184
:100040000C94D8130C946E010C9460150C94AE159E
:100050000C946E010C946E010C946E010C946E0164
:100060000C946F060C946E010A0B0C0D0E0F1112FE
:1000700013141516000102030405CF01D501DB019D
:10008000E301EC01F601FF0106020E0215021C025B
:100090002302504120506F77657209203D2025537F
:1000A0000D0A00435243204C656E67746809203D79
:1000B0002025530D0A004D6F64656C0909203D2011
:1000C00025530D0A00446174612052617465092052
:1000D0003D2025530D0A0044594E50442F464541BA
:1000E0005455524500434F4E4649470052465F53D0
:1000F000455455500052465F434800454E5F5258A4
:100100004144445200454E5F41410052585F5057B0
:100110005F50302D360054585F41444452005258CD
:100120005F414444525F50322D350052585F414484
:1001300044525F50302D31000D0A002530327800D6
:10014000203078002553092563203D000D0A00204A
:10015000307825303278002553092563203D004F43
:100160004253455256455F54583D253032783A2027
:10017000504F4C535F434E543D2578204152435FCE
:10018000434E543D25780D0A0053544154555309AC
:1001900009203D203078253032782052585F445273
:1001A0003D25782054585F44533D2578204D4158D3
:1001B0005F52543D25782052585F505F4E4F3D2589
:1001C000782054585F46554C4C3D25780D0A003137
:1001D0004D42505300324D425053003235304B4265
:1001E0005053006E524632344C3031006E5246321B
:1001F000344C30312B0044697361626C65640038A3
:100200002062697473003136206269747300504152
:100210005F4D494E0050415F4C4F57004C415F4D80
:1002200045440050415F4849474800000000002411
:100230000027002A0000000000250028002B0000F5
:100240000000002300260029000404040404040420
:100250000402020202020203030303030301020475
:100260000810204080010204081020010204081038
:100270002000000007000201000003040600000047
:100280000000000000007001E9041C1711241FBECB
:10029000CFEFD8E0DEBFCDBF13E0A0E0B1E0EAE3EE
:1002A000F3E302C005900D92AE3EB107D9F716E018
:1002B000AEEEB3E001C01D92A83DB107E1F712E038
:1002C000CCE8D2E004C02297FE010E949719C638FC
:1002D000D107C9F70E9472170C949B190C94000067
:1002E0000F938EEE93E06AE04BE00E9454088091F9
:1002F000C4032091C5033091C6034091C7035091B8
:10030000C8036091C9037091CA030091CB03809325
:100310005105209352053093530540935405509353
:100320005505609356057093570500935805B82FEF
:10033000BF5F91E0B81708F090E0A92FA20F81E00D
:10034000A21708F080E0F82FF30F81E0F31708F010
:1003500080E0E82FE40F81E0E41708F080E0382F18
:10036000350F81E0351708F080E0282F260F81E057
:10037000261708F080E0982F970F81E0971708F074
:1003800080E0800FB0935905A0935A05F0935B0568
:10039000E0935C0530935D0520935E0590935F05C7
:1003A000809360058EE194E00E94EB0C84E495E07C
:1003B00060E071E041E020E430E000E50E94A4024A
:1003C0000F9108951F93CF93DF93182F8EEE93E034
:1003D0000E94E4088FEE8093C1038CEA8093C203ED
:1003E0001093C30364E170E080E090E00E942E145B
:1003F0008EEE93E061EC73E043E00E94920C882360
:1004000019F0C0E0D0E00AC08EE194E00E94EC0C4C
:1004100060E071E00E94FF18CFEFDFEF8EEE93E017
:100420000E94DC0BCE01DF91CF911F910895CF93F5
:10043000DF938EEE93E06CEC73E00E94DB0988237F
:1004400049F18EEE93E06EEF73E040E20E94910B73
:100450008823B9F38EE194E06EEF73E040E20E94EE
:100460002B0D8823B9F08EE194E06EEF73E00E94CB
:10047000C111EC018130910521F08EE194E00E94E0
:10048000140D8EE194E06EEF73E00E943A0D8C2F14
:100490000E94E201DF91CF910895CF92DF92EF9217
:1004A000FF920F931F930EE114E096EBE92E96E076
:1004B000F92EC801B70144E455E029E00E94420D3D
:1004C000C801B7010E94F00C8EEEC82E83E0D82E32
:1004D000C6010E94160CC60168E00E94110AC601FE
:1004E00062E070E00E94BB0AC60163E04FE00E9438
:1004F000A3090091590510915A0520915B0530918F
:100500005C0540915D0550915E0560915F057091BD
:100510006005C6010E94460AE1E5F5E0E080F18051
:10052000028113812481358146815781C60161E0B2
:100530000E94120BC6010E94DC0B1F910F91FF90CD
:10054000EF90DF90CF9008950F93FC017283618349
:10055000438335832483008350E0469FC001479F37
:10056000900D569F900D1124A0E0B0E007E0880F99
:10057000991FAA1FBB1F0A95D1F781879287A3876E
:10058000B487613171051CF481E090E002C082E023
:1005900090E090878783818192818131910510F469
:1005A00088E005C022E08030920718F080E1868361
:1005B00011C09C0156E0369527955A95E1F78CE0DD
:1005C000868305C086818F5F8683369527952115A2
:1005D0003105C1F70F9108955F926F927F928F92CC
:1005E0009F92AF92BF92CF92DF92EF92FF920F93C2
:1005F0001F93CF93DF934C016A017B013901A02E39
:100600009A01AB01200F311D411D511DFC01818557
:100610009285A385B48582179307A407B50708F0D0
:1006200062C089E064C0F401C481D581D701C601EC
:10063000068004C0B695A795979587950A94D2F73A
:10064000B080B82A8BEA95E06B2D0E947E04F401FD
:1006500087819085029749F455274F2D3E2D2D2DEA
:100660008BEA95E0622F0E9431058BEA95E06C2DB4
:100670000E9431058BEA95E00E9474058823B9F544
:100680004A2D50E04132510510F040E250E0CE01D9
:1006900001978C219D219E01281B390B8A0124176B
:1006A000350708F48901502E8BEA95E06B2D402F19
:1006B0000E948505BB2408C08BEA95E00E94910446
:1006C000C60DD71D8883B394CB2DD0E0C017D107BA
:1006D00098F3C801A0E0B0E0C80ED91EEA1EFB1EC8
:1006E000600E711EA518AA2009F09DCF80E0DF9151
:1006F000CF911F910F91FF90EF90DF90CF90BF901F
:10070000AF909F908F907F906F905F9008954F92E1
:100710005F927F928F929F92AF92BF92CF92DF9221
:10072000EF92FF920F931F93CF93DF93EC016A0137
:100730007B014901702E9A01AB01200F311D411D33
:10074000511D89859A85AB85BC8582179307A407BF
:10075000B50708F077C089E07CC02C813D81472D2A
:1007600050E08F819885B201681B790B641775077B
:1007700008F4AB01C90101978C219D21B901681BC7
:10078000790B8A016417750708F48B01D701C6013C
:100790000E8004C0B695A795979587950A94D2F7D1
:1007A000A880A82A8BEA95E06A2D0E947E048F819A
:1007B0009885029749F455274F2D3E2D2D2D8BEA14
:1007C00095E0622F0E9431058BEA95E06C2D0E9426
:1007D00031058BEA95E0B401A8010E9400058BEA7F
:1007E00095E00E9474058823A1F524E6B22E84EFDB
:1007F00091E00E9487148BEA95E06A2D0E947E04A6
:100800008F819885029729F48BEA95E060E00E9439
:1008100031058BEA95E060E00E9431058BEA95E0B6
:100820000E947405882319F0BA9409F712C0C80110
:10083000A0E0B0E0C80ED91EEA1EFB1E800E911E7D
:10084000701A03C090E2492E512C772009F085CF11
:1008500080E0DF91CF911F910F91FF90EF90DF909B
:10086000CF90BF90AF909F908F907F905F904F9070
:100870000895CF92DF92EF92FF920F931F936C0136
:100880007A018B018BEA95E0F60160810E94940564
:1008900060E074E284EF90E0A80197010E9466197D
:1008A0002051304040405040CA01B90122E030E0C0
:1008B00040E050E00E9466192093B8008BEA95E072
:1008C000F60160810E947E04F6018781908502977F
:1008D00029F48BEA95E060E00E9431058BEA95E00F
:1008E00060E00E9431058BEA95E00E9474051F913B
:1008F0000F91FF90EF90DF90CF90089581E080936B
:10090000A605609383051092A4051092A50508958D
:100910002091820530E080918105281B3109C901B1
:1009200008954091810580918205481718F02FEFB6
:100930003FEF0AC0E42FF0E0EF59FA4F8081282FF3
:1009400030E04F5F40938105C9010895E091810532
:1009500080918205E81718F0EFEFFFEF06C0F0E096
:10096000EF59FA4F8081E82FF0E0CF010895089504
:10097000AC012091A9053091AA0521153105E1F0BE
:1009800090918105809182059817B0F090E008C0A1
:10099000FA01EA0FFB1F8081AF59BA4F8C939F5F1A
:1009A000A92FB0E0A617B7079CF3109281056093BA
:1009B0008205CB01F90109950895E091A705F09111
:1009C000A805309729F01092A4051092A505099565
:1009D00008951092AE051092AD0588EE93E0A0E068
:1009E000B0E08093AF059093B005A093B105B093AC
:1009F000B20581ED93E09093AC058093AB0508952B
:100A0000CF92DF92EF92FF920F931F93CF93DF93DA
:100A10007C016B018A018091A6058823A1F0C0E0CA
:100A2000D0E00DC0D701ED91FC91D601AC0FBD1FF8
:100A30000190F081E02DC7016C9109952196C017B6
:100A4000D10780F304C0CB01642F0E944A06C8017D
:100A5000DF91CF911F910F91FF90EF90DF90CF909A
:100A60000895DF93CF930F92CDB7DEB7FC01698372
:100A70008091A6058823C9F08091A505803238F0C1
:100A800081E090E09383828320E030E015C0809184
:100A9000A405E82FF0E0EC57FA4F998190838F5F1F
:100AA0008093A4058093A50505C0CE01019661E061
:100AB0000E944A0621E030E0C9010F90CF91DF91FA
:100AC00008950F93062F8091830564E875E04091A7
:100AD000A50521E00E94F5051092A4051092A50538
:100AE0001092A6050F91089561E00E946105089596
:100AF000413208F040E2862F61E675E00E94AC05C5
:100B00001092810580938205089521E00E94780566
:100B1000089510928105109282051092A4051092FA
:100B2000A5050E94000808950F931F938C01862F3E
:100B30000E94A8058DED94E00E946A0688EB94E07F
:100B40000E946506C8010E9489051F910F910895B2
:100B5000880F8093BA000895382F413210F040E09A
:100B600042C08091B7058823E1F791E09093B705E3
:100B70002093B9058FEF809324061092DF05415032
:100B80004093E0054F5F9093B8058091B805330F0F
:100B9000832B8093B8058091BA05813041F410927F
:100BA000BA058091B8058093BB0085EC01C085EE45
:100BB0008093BC008091B7058130E1F38091DF051F
:100BC000841710F44091DF0520E030E00AC0FB01FB
:100BD000E20FF31FD901A154BA4F8C9180832F5F8C
:100BE0003F4F2417A0F3842F08950F931F93582F7E
:100BF000122F413210F081E04AC08091B70588235E
:100C0000E1F782E08093B7050093B9058FEF8093F9
:100C100024061092DF054093E005AFEBB5E0FB0141
:100C200002C081918D938E2F861B8417D0F3109272
:100C3000B8058091B805550F852B8093B805809134
:100C4000BA05813041F41092BA058091B8058093BD
:100C5000BB0085EC01C085EE8093BC00112321F020
:100C60008091B7058230E1F3809124068F3F11F423
:100C700080E00DC080912406803211F482E007C02C
:100C800080912406803311F084E001C083E01F913D
:100C90000F910895482F613210F081E008958091FE
:100CA000B705843011F082E0089560930206A1EE4A
:100CB000B5E0842F9C01F90102C081918D938E2FA4
:100CC000841B8617D0F380E008959093BE0580932F
:100CD000BD0508959093BC058093BB0508951F92B0
:100CE0000F920FB60F9211242F933F934F935F9360
:100CF0006F937F938F939F93AF93BF93EF93FF93E4
:100D00008091B90090E0887F90708036910509F459
:100D1000F2C081369105CCF58832910509F47BC08B
:100D200089329105B4F48031910509F46FC08131A5
:100D300091053CF4009709F447C1089709F04FC1A9
:100D400065C08831910509F466C0809709F047C1F4
:100D500082C08034910509F4A4C08134910544F423
:100D60008033910509F482C0C89709F038C189C061
:100D70008035910509F489C08835910509F496C03C
:100D80008834910509F02BC1AEC08839910509F46A
:100D900013C189399105ECF48837910509F4ABC08A
:100DA000893791054CF48836910509F4A4C0803741
:100DB000910509F014C19FC08838910509F4FCC061
:100DC0008039910509F49DC08038910509F007C16B
:100DD00098C0803B910509F4C6C0813B91054CF455
:100DE000803A910509F49FC0883A910509F0F7C04F
:100DF000BAC0803C910509F4E3C0883C910509F430
:100E0000DFC0883B910509F0EAC0C2C08091B805F7
:100E10008093BB00CFC09091DF058091E0059817CB
:100E200068F49091DF05E92FF0E0E154FA4F8081FA
:100E30008093BB009F5F9093DF05BCC08091B90594
:100E4000882309F44BC085ED8093BC008091BC00E1
:100E500084FDFCCFC2C080E28093240685ED8093A0
:100E6000BC008091BC0084FDFCCFB7C080E38093C0
:100E7000240685ED8093BC008091BC0084FDFCCFEE
:100E8000ACC088E3809324069BC08091DF059091DD
:100E9000BB00E82FF0E0E154FA4F90838F5F80931E
:100EA000DF059091DF058091E00582C08091DF052C
:100EB0009091BB00E82FF0E0E154FA4F90838F5FF0
:100EC0008093DF058091B905882341F085ED8093FB
:100ED000BC008091BC0084FDFCCF7FC081E080938A
:100EE000BA0584EA6EC085ED8093BC008091BC0099
:100EF00084FDFCCF72C083E08093B7051092230677
:100F000059C080912306803208F056C08091230694
:100F10009091BB00E82FF0E0ED5FF94F90838F5F79
:100F20008093230647C080912306803230F4E091FD
:100F30002306F0E0ED5FF94F108285ED8093BC0051
:100F40008091BC0084FDFCCF1092B7056091230610
:100F5000E091BD05F091BE0583E096E070E0099553
:100F6000109223062DC084E08093B70510920106ED
:100F700010920206E091BB05F091BC0509958091A5
:100F80000206882329F481E0809302061092E1058D
:100F900090910106E92FF0E0EF51FA4F80818093A4
:100FA000BB009F5F9093010690910106809102061D
:100FB000981710F485EC01C085E88093BC000FC041
:100FC00085EC8093BC0009C01092240685ED8093C7
:100FD000BC008091BC0084FDFCCF1092B705FF914E
:100FE000EF91BF91AF919F918F917F916F915F91A1
:100FF0004F913F912F910F900FBE0F901F9018951A
:101000001092B70581E08093B9051092BA0582E18C
:1010100061E00E940B1583E161E00E940B15E9EB92
:10102000F0E080818E7F808380818D7F808388E463
:101030008093B80085E48093BC000895882319F458
:101040008CB5806202C08CB58F7D8CBD08959CB537
:10105000937F982B9CBD08952CB5382F33702C7F2F
:10106000322B3CBD2DB590E095958795959587954C
:1010700081702E7F822B8DBD08958AE061E00E94F1
:101080000B158AE061E00E94CC148CB580618CBDA8
:101090008CB580648CBD8DE061E00E94CC148BE047
:1010A00061E00E94CC140895FC016083418381E0DB
:1010B0008283138280E284831582168210861186D1
:1010C0001286138614861586168617860895FF9253
:1010D0000F931F938C01F62E81E00E941E0880E082
:1010E0000E94270880E00E942C08F80181816F2D62
:1010F0000E940B151F910F91FF9008951F93CF939E
:10110000DF93EC0160E070E00E94670880E68EBD2E
:101110000DB407FEFDCF8EB58FEF8EBD0DB407FE6B
:10112000FDCF1EB5CE0161E070E00E946708812FFF
:10113000DF91CF911F9108951F93CF93DF93EC011F
:1011400060E070E00E9467088FEF8EBD0DB407FE6F
:10115000FDCF1EB5CE0161E070E00E946708812FCF
:10116000DF91CF911F9108951F93CF93DF93EC01EF
:1011700060E070E00E94670881EE8EBD0DB407FE4E
:10118000FDCF1EB5CE0161E070E00E946708812F9F
:10119000DF91CF911F9108951F93CF93DF93EC01BF
:1011A00060E070E00E94670882EE8EBD0DB407FE1D
:1011B000FDCF1EB5CE0161E070E00E946708812F6F
:1011C000DF91CF911F9108950F931F938C01FC0124
:1011D000808160E00E940B15C8010E94B408C8011C
:1011E0000E94CC081F910F910895EF92FF920F93E8
:1011F0001F93CF93DF93EC01F62EE72E9C81142FE3
:10120000941708F4192F8E81882311F000E002C092
:10121000092F011BCE0160E070E00E94670881E6A3
:101220008EBD0DB407FEFDCF8F2D9E2D9C01F901C3
:10123000FEB49FEF07C09EBD0DB407FEFDCF8EB577
:10124000819311501123B9F707C08EBD0DB407FE6D
:10125000FDCF9EB5015001C08FEF0023B1F7CE0145
:1012600061E070E00E9467088F2DDF91CF911F91A0
:101270000F91FF90EF900895EF92FF920F931F93BD
:10128000CF93DF93EC01F62EE72E9C81142F941759
:1012900008F4192F8E81882311F000E002C0092F75
:1012A000011BCE0160E070E00E94670880EA8EBDFD
:1012B0000DB407FEFDCF8F2D9E2D9C01F901FEB4CC
:1012C00008C080818EBD0DB407FEFDCF31968EB56E
:1012D00011501123B1F706C01EBC0DB407FEFDCF9F
:1012E0008EB501500023C1F7CE0161E070E00E948D
:1012F00067088F2DDF91CF911F910F91FF90EF9095
:1013000008950F931F93CF93DF93EC01162F042FB3
:1013100060E070E00E9467081F7110621EBD0DB48E
:1013200007FEFDCF1EB50EBD0DB407FEFDCF8EB579
:10133000CE0161E070E00E946708812FDF91CF91BC
:101340001F910F910895262F4F702295207F242BF7
:1013500064E0422F0E9481090895CF92DF92EF92BC
:10136000FF920F931F938B017A01690167E040E7B9
:101370000E94810990E09C01E5E036952795EA9569
:10138000E1F72170F801208374E0969587957A95AE
:10139000E1F7282F2170F701208396958795969580
:1013A00087958170F60180831F910F91FF90EF90D8
:1013B000DF90CF900895DF92EF92FF920F931F93EB
:1013C000CF93DF938C017B010E949C08C82FD0E053
:1013D000CE01A6E096958795AA95E1F7DD24D394F2
:1013E000D82280FF15C0E114F10431F0CE019595AB
:1013F00087958770F7018083C80167E040E40E9409
:101400008109C5FF05C0C80167E040E20E9481096B
:101410008D2DDF91CF911F910F91FF90EF90DF9075
:101420000895462F603808F04FE765E00E94810973
:101430000895EF92FF920F931F93CF93DF937C0158
:10144000162FEA01022F60E070E00E9467081F710A
:1014500010621EBD0DB407FEFDCF1EB508C0888109
:101460008EBD0DB407FEFDCF21968EB50150002331
:10147000B1F7C70161E070E00E946708812FDF913A
:10148000CF911F910F91FF90EF900895EF92FF92EF
:101490000F931F93DF93CF93CDB7DEB728970FB687
:1014A000F894DEBF0FBECDBF7C0109831A832B8366
:1014B0003C834D835E836F8378878E010F5F1F4F60
:1014C0006AE0A80125E00E94190AC70160E1A801AD
:1014D00025E00E94190AF7014481413208F040E2F8
:1014E000C70161E10E94810928960FB6F894DEBF1A
:1014F0000FBECDBFCF91DF911F910F91FF90EF9065
:1015000008951F93CF93DF93EC01162F60E070E0F6
:101510000E9467081F711EBD0DB407FEFDCF8EB57A
:101520008FEF8EBD0DB407FEFDCF1EB5CE0161E07D
:1015300070E00E946708812FDF91CF911F9108957D
:101540000F931F93CF93DF938C01EB0160E00E9418
:10155000810A482F437F209729F0219711F4486092
:1015600001C04C60C80160E00E948109DF91CF9109
:101570001F910F910895FF920F931F93CF93DF93C5
:10158000EC018B0166E00E94810A1A82B7EDFB2E06
:10159000F8220230110511F480E206C00130110575
:1015A00029F481E08A8388E0F82A01C01A82CE01FA
:1015B00066E04F2D0E948109CE0166E00E94810AFB
:1015C0008F1511F481E002C01A8280E0DF91CF9183
:1015D0001F910F91FF9008950F931F93CF93DF9367
:1015E0008C01EB0166E00E94810A482F497FC330DD
:1015F000D10571F0C230D10511F444600AC0C13088
:10160000D10511F4426005C0209719F0249709F420
:101610004660C80166E00E948109DF91CF911F9169
:101620000F910895BF92CF92DF92EF92FF920F93A6
:101630001F93DF93CF93CDB7DEB728970FB6F894FB
:10164000DEBF0FBECDBF6C01B62EE982FA820B83DE
:101650001C832D833E834F835887662389F4F601CC
:10166000E0868A8181878B8182878C8183878D81C7
:1016700084878E8185878F8186878885878707C045
:10168000F6E0F61708F43DC081E0681761F4EB2D31
:10169000F0E0E859FF4FE491C6016E2FAE014F5FB5
:1016A0005F4F25E00BC0E62FF0E0E859FF4FE491D3
:1016B000C6016E2FAE014F5F5F4F21E00E94190AF5
:1016C0000B2D10E0F801E259FF4FE491C6016E2F97
:1016D000F60144810E948109C60162E00E94810AEC
:1016E0000C581F4FF801649121E030E002C0220F36
:1016F000331F6A95E2F7482F422BC60162E00E9431
:10170000810928960FB6F894DEBF0FBECDBFCF91EA
:10171000DF911F910F91FF90EF90DF90CF90BF90DE
:1017200008950F931F938C010E94F508C80167E18B
:101730000E94810A81701F910F910895DF92EF92AC
:10174000FF920F931F938C017B01D42E60E00E94C7
:10175000810A482F4C7F4260C80160E00E948109E5
:1017600086E990E00E948714C801B7014D2D0E94C0
:101770003C09F801808161E00E940B158FE090E048
:101780000E948714F801808160E00E940B151F9170
:101790000F91FF90EF90DF9008950F931F938C01AE
:1017A00060E00E94810A482F4D7FC80160E00E94DE
:1017B00081091F910F910895CF93DF93EC0160E0B1
:1017C0000E94810A482F4360CE0160E00E94810997
:1017D000CE0167E040E70E94810988859985892BC1
:1017E0009A85892B9B85892B9C85892B9D85892BA7
:1017F0009E85892B9F85892B41F0AE01485F5F4F05
:10180000CE016AE025E00E94190ACE010E94CC08B0
:10181000CE010E94B408888161E00E940B1582E825
:1018200090E00E948714DF91CF910895CF93DF93CA
:10183000EC01888161E00E94CC14898161E00E9402
:10184000CC140E943D08888160E00E940B15CE01F7
:1018500061E070E00E94670865E070E080E090E081
:101860000E942E14CE0164E04FE40E948109CE0153
:1018700063E070E00E94EC0ACE0162E070E00E943A
:10188000BB0A882311F081E08B83CE0160E070E019
:101890000E94BB0ACE0162E070E00E94A00ACE0165
:1018A0006CE140E00E948109CE0167E040E70E94C0
:1018B0008109CE016CE40E94110ACE010E94CC087D
:1018C000CE010E94B408DF91CF910895EF92FF926C
:1018D0000F931F93CF93DF937C01162FEA01022F02
:1018E00060E070E00E9467081F711EBD0DB407FE26
:1018F000FDCF1EB59FEF07C09EBD0DB407FEFDCF07
:101900008EB5899301500023B9F7C70161E070E0FB
:101910000E946708812FDF91CF911F910F91FF9057
:10192000EF900895AF92BF92CF92DF92EF92FF9225
:101930000F931F93DF93CF9300D00F92CDB7DEB7F5
:101940008C010E949E0B0E9420146B017C015E01A1
:101950000894A11CB11CC80168E0A50121E00E9407
:10196000660C807331F50E9420146C197D098E0974
:101970009F09645F714080409040D8F4ECCFC8016B
:101980000E947E08F8018783C8010E94CD0BC80120
:101990000E94B4088F2D0F900F900F90CF91DF9180
:1019A0001F910F91FF90EF90DF90CF90BF90AF907D
:1019B000089598012B5F3F4FC801BE016E5F7F4FB6
:1019C000AE014D5F5F4F0E94AD09FA80F80185813D
:1019D0008823D1F2D4CF0895FC01848195810895A4
:1019E000FC01758364830895CF93DF93EC010BC0F2
:1019F000EA81FB81A081B18116962D913C911797C8
:101A0000CF01F9010995EA81FB81A081B18114968A
:101A10002D913C911597CF01F901099518161906DA
:101A20003CF3DF91CF910895FC01E05FFE4F1192EE
:101A3000119211921192119211921192119211928E
:101A400011921192119211921192119280E190E0F3
:101A5000918380830895FB01443048F080818F3E5C
:101A600031F490E081818C3A19F491E001C090E06A
:101A7000892F0895FB0190E08281803409F491E080
:101A8000892F0895CF93DF93EC01822F59834883E8
:101A90007B836A83C15FDE4F2883CF50D14061E0F2
:101AA0000E94CC148881998140E85AE166E070E098
:101AB0000E943904882349F08C819D816CE071E09B
:101AC0000E94FF1825E030E008C086EB96E00E94F7
:101AD0001A178823D1F320E030E0C901DF91CF91BC
:101AE00008950F931F93CF93DF93EC018C01055E54
:101AF0001E4FF80180819181A281B38118161906C9
:101B00001A061B0604F50E942014F8012081318179
:101B100042815381621B730B840B950BCE5DDE4FAC
:101B2000288139814A815B81C252D140261737070B
:101B30004807590740F48C819D816BE171E00E9458
:101B4000FF1881E001C080E0DF91CF911F910F91DC
:101B500008950F931F938C01FC018481958168E2A5
:101B600071E00E94FF18015F1E4FF801808160E064
:101B70000E940B1568EC70E080E090E00E942E144B
:101B8000F801808161E00E940B156CE271E080E059
:101B900090E00E942E141F910F910895AF92BF9272
:101BA000CF92DF92EF92FF920F931F93CF93DF9329
:101BB0007C015B01122FDC0114968D919C9115978D
:101BC000BA010E94FC18F701848195816DE371E0F0
:101BD0000E94FC18C0E0D0E0012F10E068010894DA
:101BE000C108D10815C0F501EC0FFD1F608140E16F
:101BF00050E00E945A18CC15DD054CF4D70114961C
:101C00008D919C91159760E471E00E94FC182196DB
:101C1000F70184819581C017D1072CF362E471E04C
:101C20000E94FF18D7011496ED91FC911597A081A1
:101C3000B1811A962D913C911B97CF01F90109951D
:101C4000DF91CF911F910F91FF90EF90DF90CF9098
:101C5000BF90AF9008953F924F925F926F927F92A4
:101C60008F929F92AF92BF92CF92DF92EF92FF92AC
:101C70000F931F93CF93DF937C01362E8A010E942E
:101C800020143B014C018CE8482E512C4E0C5F1C5B
:101C9000C0E0D0E05801CC24B7FCC094DC2C032D6C
:101CA00010E026C0D7011296ED91FC911397A08108
:101CB000B18114962D913C911597CF01F9010995A9
:101CC00018161906ACF4D7011296ED91FC911397F2
:101CD000A081B18116962D913C911797CF01F90102
:101CE0000995F20181932F012196C017D10759F070
:101CF0000E94201466197709880999096A157B05DD
:101D00008C059D0578F20E942014661977098809D0
:101D100099096A157B058C059D0518F0CEEFDFEF5C
:101D200035C0C7010E94F40C832D90E0C817D90775
:101D300069F1D70114968D919C91159763E471E038
:101D40000E94FC18F70184819581BE014AE050E0B1
:101D50000E94CA18D70114968D919C91159766E53B
:101D600071E00E94FC18F70184819581632D4AE09F
:101D700050E00E945A18D70114968D919C911597A6
:101D800067E671E00E94FF18CFEFDFEFCE01DF9131
:101D9000CF911F910F91FF90EF90DF90CF90BF9068
:101DA000AF909F908F907F906F905F904F903F90FB
:101DB0000895BF92CF92DF92EF92FF920F931F93FD
:101DC000CF93DF937C016A01122FB02EFC01A28118
:101DD000B381ED91FC9111970190F081E02DCD013F
:101DE0000995C114D104D9F01123C9F0C0E0D0E0A5
:101DF000012F10E011C0F701A281B381ED91FC9198
:101E0000119796012C0F3D1F0190F081E02DCD011F
:101E1000D9016C9109952196C017D10764F3F70198
:101E2000A281B381ED91FC9111970190F081E02D99
:101E3000CD0160E20995F701A281B381ED91FC919A
:101E400011970284F385E02DCD010995F2E0BF0ED4
:101E5000C7016B2D48EE53E00E942B0E9C0197FDAD
:101E60000CC08230910564F4D70114968D919C9139
:101E700015976EE671E00E94FF182FEF3FEF42C00A
:101E8000F701E457FF4F8081843141F0F7018481ED
:101E900095816FE771E00E94FC18EFCFB9016150A6
:101EA0007040E701C60FD71FC457DF4F88818031CC
:101EB00091F0D70114968D919C9115976DE871E082
:101EC0000E94FC18F70184819581688140E150E00F
:101ED0000E946C18D2CF822F825040E050E0A82F91
:101EE000B0E004C04F5F5F4F818181939D014A172D
:101EF0005B07C4F3E60EF71E8CE890E0E80EF91ECF
:101F0000D7011C92C901DF91CF911F910F91FF90D2
:101F1000EF90DF90CF90BF900895EF92FF920F93D4
:101F20001F93CF93DF93EC01AB01122F65E522E005
:101F300000E00E94D90E8F5F9F4F29F48C819D8114
:101F400066EA71E018C019861A8786E48B8799E0E3
:101F5000E92EF12CEC0EFD1E212F2D5FCE0164E643
:101F6000A70100E00E94D90E8F5F9F4F49F48C813A
:101F70009D816AEB71E00E94FF182FEF3FEF36C0A2
:101F8000CE0164E7A70123E0012F0E94D90E81173B
:101F900031F4FE0100E010E0282F30E022C08C81F7
:101FA0009D816BEC71E0E7CFE457FF4F9081EC58D7
:101FB000F04084853196981791F08C819D816EED6B
:101FC00071E00E94FC188C819D81B8014AE050E0CC
:101FD0000E94DD188C819D8162EF71E0CCCF0F5F94
:101FE0001F4F0217130704F320E030E0C901DF910F
:101FF000CF911F910F91FF90EF900895EF92FF9274
:102000000F93CF93DF93EC010E94F40C81E88E8351
:1020100036E0E32EF12CEC0EFD1ECE0161E4A701AB
:1020200021E001E00E94D90E8F5F9F4F09F463C049
:1020300082E88E83CE0161E4A70121E001E00E94E5
:10204000D90E8F5F9F4F09F456C083E88E83CE016F
:1020500061E4A70121E001E00E94D90E8F5F9F4F4C
:1020600009F449C02CE8E22EF12CEC0EFD1EF7011C
:102070008081833079F08C819D8163E072E00E94E1
:10208000FC188C819D81F70160814AE050E00E943C
:102090006C1831C0CE0165E740E050E020E003E07D
:1020A0000E94D90E039739F5F70180818E31D1F462
:1020B000C357DF4F8881CD58D040843941F4C2578F
:1020C000DF4F8881CE58D040863061F417C0853903
:1020D00049F4C257DF4F8881CE58D0408F3071F01D
:1020E000843161F0CE01C457DF4FBE014EE152E0B2
:1020F00023E00E94CE0D2FEF3FEF08C08C819D8121
:1021000065E372E00E94FF1820E030E0C901DF9132
:10211000CF910F91FF90EF9008952F923F924F92A1
:102120005F926F927F928F929F92AF92BF92CF9267
:10213000DF92EF92FF920F931F93DF93CF93CDB770
:10214000DEB728970FB6F894DEBF0FBECDBF9887D5
:102150008F837E836D837A010E94201469837A8342
:102160008B839C83AF81B88514968D919C91159734
:1021700069E472E00E94FF188F8198850E94A90D82
:102180008F8198850E94FE0F892B31F1EF81F885B0
:102190008481958161E672E00E94FF182F81388565
:1021A000205F3E4FD9011D921D921D921D921D92DE
:1021B0001D921D92FD011192119211921192DF0157
:1021C0001D921D921D921D92B887AF83FD0180E183
:1021D00090E09183808334C0F9E0AF2EB12CEF8181
:1021E000F885AE0EBF1ECF0160E5A50120E000E03E
:1021F0000E94D90E8F5F9F4FC9F0ECE02E2E312C3C
:102200002F813885220E331E77E0472E512C420E47
:10221000531ECD80DE806FE0662E712C6E0C7F1C0D
:1022200050E1852E912C8E0C9F1C52C0AF81B88539
:1022300014968D919C9115976FE672E00E94FF189D
:102240002FEF3FEF84C07401EC18FD08B0E8EB16E7
:10225000F1041CF040E8E42EF12CA601662757FD9E
:102260006095762FEF81F8858081918191010E2D07
:102270000E94EC02882349F0AF81B88514968D91B5
:102280009C9115976AE872E0D9CFC601ED81FE8175
:102290008E1B9F0B62E070E00E943119AF81B88500
:1022A00017966C93179718967C938F819885B20137
:1022B000A5012E2D0E948D0F8F5F9F4F39F4EF8166
:1022C000F885848195816BE972E0B8CFCE0CDF1C74
:1022D0006C147D040CF0B7CF8F81988561E5A50162
:1022E00020E000E00E94D90EAF81B88514962D91B0
:1022F0003C9115978F5F9F4F21F4C9016AEA72E004
:102300009DCFC90165EC72E00E94FC18EF81F88551
:10231000048115810E942014AB01BC0189819A813E
:10232000AB81BC81481B590B6A0B7B0BC8012AE0AF
:1023300030E00E944B18AF81B88514968D919C9126
:10234000159761ED72E00E94FF1820E030E0C901AE
:1023500028960FB6F894DEBF0FBECDBFCF91DF91A8
:102360001F910F91FF90EF90DF90CF90BF90AF90B3
:102370009F908F907F906F905F904F903F902F90A5
:1023800008956F927F928F929F92AF92BF92CF9259
:10239000DF92EF92FF920F931F93CF93DF93EC01A5
:1023A0003B018C819D8164ED72E00E94FC18F30179
:1023B0008281803109F080C08C819D8166ED72E060
:1023C0000E94FF18CA5EDE4F8881C651D140882323
:1023D00031F08C819D816CEE72E00E94FF1850E11B
:1023E000C52E51E0D52ECC0EDD1EF60111821082D5
:1023F00042E1842E41E0942E8C0E9D1EF401118248
:10240000108234E1A32E31E0B32EAC0EBD1EF501D7
:102410001182108226E1E22E21E0F22EEC0EFD1E4A
:10242000F70110828E01095E1E4FF80110821182A1
:1024300012821382C55EDE4F199219921992199277
:1024400080E190E0899399930E942014F8016083C1
:1024500071838283938381E0F7018083F601118287
:102460001082F301948180E02581820F911DF50196
:1024700091838083F301268130E0878190E0089684
:1024800002C0220F331F8A95E2F7F40131832083C3
:10249000F30180858993618570E080E090E028EE0B
:1024A00033E040E050E00E941219688379838A8308
:1024B0009B83C252D14059C1803209F0A2C08E0123
:1024C0000A5E1E4FF8018081882309F468C1CE019D
:1024D0000E94710DFE01E05FFE4F9FE1C92E91E069
:1024E000D92ECC0EDD1E882351F011821082CE5ED3
:1024F000DE4F1992199219821882F801A4C08081C6
:102500009181019691838083F301B380948180E06F
:1025100025817C01E20EF11CF60120813181C70189
:102520000F968701005F1F4F82179307ECF08C8195
:102530009D816BEF72E00E94FC18F6016081718151
:102540008C819D814AE050E00E94CA188C819D8157
:1025500063E173E00E94FC188C819D81B8014AE020
:1025600050E00E94DD1820C002171307ECF48C81A4
:102570009D816DE173E00E94FC1810708C819D813B
:10258000B8014AE050E00E94CA188C819D8160E445
:1025900073E00E94FC18F6016081718170708C817B
:1025A0009D814AE050E097C0A701405F5F4F0FE177
:1025B000E02E01E0F02EEC0EFD1EF701518340836A
:1025C0001B2D1650662757FD6095762F86E090E00C
:1025D000680E791E888199819301012F0E948703DB
:1025E000882349F08C819D8168E573E00E94FF1883
:1025F00026E030E0C4C0F70180819181810F911DF8
:10260000B2C0803409F0CBC016E1A12E11E0B12E8A
:10261000AC0EBD1EF5018081882309F4C0C0CE0137
:102620000E94710DBFE1CB2EB1E0DB2ECC0EDD1E82
:102630008823D9F0C05FDE4F19921992199219922E
:1026400019821882F5011082239619921992199213
:102650001992188219821A821B8280E190E0F60199
:102660009183808323E030E08AC08C819D8162E485
:1026700071E00E94FF188C819D816DE673E00E94DD
:10268000FF18F301948180E025818C01020F111D58
:10269000F60180819181409708171907F9F08C8124
:1026A0009D8160E873E00E94FC188C819D81B801D7
:1026B00040E150E00E94CA188C819D8167E873E078
:1026C0000E94FC18F60160817181605170408C811C
:1026D0009D8140E150E00E94DD1867C0A4E1EA2E30
:1026E000A1E0FA2EEC0EFD1EF70180819181081702
:1026F000190729F08C819D8162E973E054C08A81B9
:102700009B8140E052EC61E070E00E94E915F70126
:1027100040815181CE0160E170E00E948D10892BD3
:1027200049F08C819D8167EA73E00E94FF1824E0E4
:1027300030E025C0C05FDE4F1992199219821882CD
:10274000F70111821082F5011082259619921992D3
:1027500019921992188219821A821B82CB51D14088
:1027600080E190E0F601918380830E942014C55E91
:10277000DE4F688379838A839B8321E030E0C9013F
:10278000DF91CF911F910F91FF90EF90DF90CF904D
:10279000BF90AF909F908F907F906F9008958C81A5
:1027A0009D8165EB73E00E94FF1822E030E0E7CFE7
:1027B0001F920F920FB60F9211242F933F938F9376
:1027C0009F93AF93BF938091290690912A06A09181
:1027D0002B06B0912C0630912D060196A11DB11D3E
:1027E000232F2D5F2D3720F02D570196A11DB11DF0
:1027F00020932D068093290690932A06A0932B06FA
:10280000B0932C068091250690912606A09127066C
:10281000B09128060196A11DB11D809325069093C5
:102820002606A0932706B0932806BF91AF919F91EB
:102830008F913F912F910F900FBE0F901F90189581
:102840008FB7F8942091290630912A0640912B06E3
:1028500050912C068FBFB901CA0108959B01AC01AC
:102860007FB7F8948091250690912606A0912706BF
:10287000B091280666B5A89B05C06F3F19F0019678
:10288000A11DB11D7FBFBA2FA92F982F8827860FB2
:10289000911DA11DB11D62E0880F991FAA1FBB1FCA
:1028A0006A95D1F7BC012DC0FFB7F8948091250639
:1028B00090912606A0912706B0912806E6B5A89B20
:1028C00005C0EF3F19F00196A11DB11DFFBFBA2F42
:1028D000A92F982F88278E0F911DA11DB11DE2E011
:1028E000880F991FAA1FBB1FEA95D1F7861B970B6C
:1028F000885E9340C8F221503040404050406851BB
:102900007C4F211531054105510571F60895019758
:1029100039F0880F991F880F991F02970197F1F7D7
:102920000895789484B5826084BD84B5816084BD47
:1029300085B5826085BD85B5816085BDEEE6F0E038
:10294000808181608083E1E8F0E010828081826094
:102950008083808181608083E0E8F0E08081816015
:102960008083E1EBF0E0808184608083E0EBF0E045
:10297000808181608083EAE7F0E0808184608083E9
:102980008081826080838081816080838081806893
:1029900080831092C1000895CF93DF93482F50E0B9
:1029A000CA01835A9D4FFC013491475B5D4FFA0188
:1029B0008491882369F190E0880F991FFC01E55DFF
:1029C000FD4FA591B491FC01EB5CFD4FC591D491F5
:1029D000662351F42FB7F8948C91932F9095892307
:1029E0008C93888189230BC0623061F42FB7F894EF
:1029F0008C91932F909589238C938881832B888346
:102A00002FBF06C09FB7F8948C91832B8C939FBFE8
:102A1000DF91CF910895482F50E0CA018F589D4F04
:102A2000FC012491CA01835A9D4FFC019491475B9C
:102A30005D4FFA013491332309F440C0222351F150
:102A4000233071F0243028F42130A1F0223011F528
:102A500014C02630B1F02730C1F02430D9F404C0BE
:102A6000809180008F7703C0809180008F7D80935C
:102A7000800010C084B58F7702C084B58F7D84BD7F
:102A800009C08091B0008F7703C08091B0008F7D26
:102A90008093B000E32FF0E0EE0FFF1FEB5CFD4FE3
:102AA000A591B4912FB7F894662321F48C91909559
:102AB000892302C08C91892B8C932FBF0895089590
:102AC0001F920F920FB60F9211242F933F934F93A3
:102AD0008F939F93EF93FF938091C00082FD1DC061
:102AE0004091C60020916E0630916F062F5F3F4FD8
:102AF0002F733070809170069091710628173907F6
:102B000071F0E0916E06F0916F06E25DF94F40833F
:102B100030936F0620936E0602C08091C600FF912D
:102B2000EF919F918F914F913F912F910F900FBEF9
:102B30000F901F901895E091C206F091C306E05CDB
:102B4000FF4F8191919120813181821B930B8F7373
:102B50009070892B11F00E945F1508951F920F92BB
:102B60000FB60F9211242F933F938F939F93EF9360
:102B7000FF932091B2063091B3068091B4069091F4
:102B8000B5062817390731F48091C1008F7D8093F5
:102B9000C10014C0E091B406F091B506EE58F94FAB
:102BA00020818091B4069091B50601968F73907044
:102BB0009093B5068093B4062093C600FF91EF91E1
:102BC0009F918F913F912F910F900FBE0F901F906B
:102BD0001895AF92BF92DF92EF92FF920F931F93DF
:102BE000CF93DF93EC017A018B01DD24403081EE3D
:102BF000580780E0680780E0780711F0DD24D3945F
:102C000091E0A92EB12CEC89FD89DD2069F0C50188
:102C100008A002C0880F991F0A94E2F7808360E041
:102C200079E08DE390E005C0108260E874E88EE101
:102C300090E0A80197010E94441921503040404083
:102C40005040569547953795279580E120303807B5
:102C500020F0DD2011F0DD24D6CFE889F98930831A
:102C6000EA89FB89208319A2EE89FF89408121E04E
:102C700030E0C9010C8C02C0880F991F0A94E2F75A
:102C8000482B4083EE89FF894081C9010D8C02C029
:102C9000880F991F0A94E2F7482B4083EE89FF8939
:102CA0004081C9010E8C02C0880F991F0A94E2F777
:102CB000482B4083EE89FF8980810F8C02C0220F50
:102CC000331F0A94E2F7209528232083DF91CF91C8
:102CD0001F910F91FF90EF90DF90BF90AF900895FC
:102CE000DC011C96ED91FC911D97E05CFF4F21915A
:102CF000319180819181281B390B2F733070C9016C
:102D00000895DC011C96ED91FC911D97E05CFF4F4E
:102D100020813181E054F040DF01AE5BBF4F8D91E7
:102D20009C9111972817390719F42FEF3FEF07C02F
:102D30008D919C91E80FF91F8081282F30E0C90107
:102D40000895DC011C96ED91FC911D97E05CFF4F0E
:102D500020813181E054F040DF01AE5BBF4F8D91A7
:102D60009C9111972817390719F42FEF3FEF10C0E6
:102D70008D919C911197E80FF91F20818D919C9165
:102D8000119701968F73907011969C938E9330E0FB
:102D9000C9010895DC0191968C919197882339F0AF
:102DA0005496ED91FC915597808186FFF9CF9196CD
:102DB0001C920895CF93DF93EC01EE85FF85E05CD4
:102DC000FF4F20813181E054F0402F5F3F4F2F7340
:102DD0003070DF01AE5BBF4F8D919C91119728172A
:102DE0003907D1F3E05CFF4F80819181E054F040DE
:102DF000E80FF91F6083EE85FF85E05CFF4F3183AC
:102E00002083EE89FF89208181E090E00F8C02C051
:102E1000880F991F0A94E2F7282B208381E089A369
:102E2000EC89FD8980818064808381E090E0DF917E
:102E3000CF91089581E008951092B9061092B806D6
:102E400088EE93E0A0E0B0E08093BA069093BB06D2
:102E5000A093BC06B093BD0681EE93E09093B706B5
:102E60008093B6068EE296E09093C3068093C206E6
:102E700082E796E09093C5068093C40685EC90E0C7
:102E80009093C7068093C60684EC90E09093C906A1
:102E90008093C80680EC90E09093CB068093CA069E
:102EA00081EC90E09093CD068093CC0682EC90E08C
:102EB0009093CF068093CE0686EC90E09093D10657
:102EC0008093D00684E08093D20683E08093D3067B
:102ED00087E08093D40685E08093D50681E08093D7
:102EE000D6060895CF93DF930E9491140E944D025D
:102EF000CBE9D5E10E9417022097E1F30E949B15D0
:102F0000F9CFCF92DF92EF92FF920F931F93CF935F
:102F1000DF937C016B018A01C0E0D0E00FC0D601D5
:102F20006D916D01D701ED91FC910190F081E02D43
:102F3000C7010995C80FD91F01501040011511058F
:102F400071F7CE01DF91CF911F910F91FF90EF901C
:102F5000DF90CF900895EF92FF920F931F938C0113
:102F6000DC01ED91FC910190F081E02D6DE009957F
:102F70007C01D801ED91FC910190F081E02DC80118
:102F80006AE009959C012E0D3F1DC9011F910F910B
:102F9000FF90EF900895CF93DF93EC0161157105D9
:102FA00019F420E030E00FC0DB010D900020E9F7BC
:102FB0001197A61BB70BE881F9810280F381E02D00
:102FC000AD0109959C01C901DF91CF9108954F9200
:102FD0005F927F928F929F92AF92BF92CF92DF9239
:102FE000EF92FF920F931F93DF93CF93CDB7DEB78E
:102FF000A1970FB6F894DEBF0FBECDBF2C01742E83
:10300000CB01223008F42AE019A231E2C32ED12CE0
:10301000CC0EDD1E822E9924AA24BB24672D752F89
:10302000A50194010E94441979018A01C801B701E0
:10303000A50194010E941219472D461B0894C1084E
:10304000D1084A3014F4405D01C0495CF601408368
:10305000E114F1040105110521F07E2C5F2DC8015A
:10306000DDCFC201B6010E94CB17A1960FB6F8942E
:10307000DEBF0FBECDBFCF91DF911F910F91FF90AB
:10308000EF90DF90CF90BF90AF909F908F907F9008
:103090005F904F900895DC012115310541F4ED91C9
:1030A000FC910190F081E02D642F099508950E9414
:1030B000E7170895EF92FF920F931F939A01E62E60
:1030C000FF2400E010E0B801A7010E944B181F91F7
:1030D0000F91FF90EF900895CF92DF92EF92FF92C1
:1030E0000F931F936C01E62E9A01FF2400E010E07D
:1030F000B801A7010E944B188C01C6010E94AB17B2
:10310000080F191FC8011F910F91FF90EF90DF90DA
:10311000CF900895CF92DF92EF92FF920F931F937B
:10312000CF93DF93EC016A017B012115310541F456
:10313000E881F9810190F081E02D642F09951FC08D
:103140002A303105D1F477FF17C0E881F981019069
:10315000F081E02D6DE209958C0144275527BA01D5
:103160004C195D096E097F09CE012AE00E94E7171C
:103170009801280F391F04C02AE00E94E7179C011C
:10318000C901DF91CF911F910F91FF90EF90DF90D8
:10319000CF900895EF92FF920F931F937B019A01B6
:1031A0000027F7FC0095102FB801A7010E948A188C
:1031B0001F910F91FF90EF900895CF92DF92EF92C1
:1031C000FF920F931F936C017B019A010027F7FC7C
:1031D0000095102FB801A7010E948A188C01C60122
:1031E0000E94AB17080F191FC8011F910F91FF9084
:1031F000EF90DF90CF9008950E94CB170895EF9243
:10320000FF920F931F937C010E94CB178C01C70183
:103210000E94AB17080F191FC8011F910F91FF9053
:10322000EF900895629FD001739FF001829FE00D9F
:10323000F11D649FE00DF11D929FF00D839FF00D35
:10324000749FF00D659FF00D9927729FB00DE11DE1
:10325000F91F639FB00DE11DF91FBD01CF011124BE
:10326000089597FB092E07260AD077FD04D049D090
:1032700006D000201AF4709561957F4F0895F6F7F7
:10328000909581959F4F0895A1E21A2EAA1BBB1B12
:10329000FD010DC0AA1FBB1FEE1FFF1FA217B30722
:1032A000E407F50720F0A21BB30BE40BF50B661F38
:1032B000771F881F991F1A9469F7609570958095FC
:1032C00090959B01AC01BD01CF01089597FB092E9C
:1032D00005260ED057FD04D0D7DF0AD0001C38F4E5
:1032E00050954095309521953F4F4F4F5F4F089532
:1032F000F6F790958095709561957F4F8F4F9F4F12
:103300000895AA1BBB1B51E107C0AA1FBB1FA6172C
:10331000B70710F0A61BB70B881F991F5A95A9F77E
:1033200080959095BC01CD010895EE0FFF1F05908B
:0A333000F491E02D0994F894FFCF0A
:10333A0041434B205458206661696C006565707280
:10334A006F6D206661696C7572650050726F6720D7
:10335A0074696D656F757400426F756E63696E6727
:10336A00207468652041726475696E6F003A2000A6
:10337A002C0000726561642074696D656F75742133
:10338A0020676F74200020627974652C206578703C
:10339A006563746564200020627974657300496E00
:1033AA0076616C696420726573706F6E7365004E26
:1033BA006F2053544B5F494E53594E430045787022
:1033CA0065637465642053544B5F4F4B2062757478
:1033DA002077617320004C6F6164206164647265B8
:1033EA007373206661696C65640050726F67207040
:1033FA00616765206661696C656400526561642075
:10340A0070616765206C656E206661696C0056653F
:10341A00726966792070616765206661696C20400F
:10342A002000566572696679207061676520666159
:10343A00696C00556E78706563746564206F70748A
:10344A0069626F6F74207265706C793A2000556EEC
:10345A006578706563746564207369676E617475F5
:10346A0072653A200054616C6B696E6720746F2034
:10347A004F707469626F6F7400466C617368696E2D
:10348A00672066726F6D20656570726F6D2E2E2EC5
:10349A0000436865636B206661696C65642100534B
:1034AA00544B5F454E5445525F50524F474D4F441F
:1034BA0045206661696C75726500454550524F4DED
:1034CA002072656164206661696C0073656E6420B0
:1034DA0070616765206661696C0053544B5F4C45A7
:1034EA004156455F50524F474D4F444520666169EA
:1034FA006C75726500466C617368656420696E203C
:10350A00006D73002A0052656365697665642073ED
:10351A0074617274207061636B6574004572726FB6
:10352A00723A20696E2070726F67005741524E3AA4
:10353A00206578706563746564206164647265737C
:10354A007320002062757420676F74200045525200
:10355A004F523A20617474656D707420746F2077CD
:10356A007269746520402061646472657373200017
:10357A00206275742063757272656E74206164646A
:10358A007265737320402000454550524F4D207795
:10359A0072697465206661696C75726500466C6152
:1035AA007368207374617274207061636B65740050
:1035BA007073697A6520002C637572206164647285
:1035CA0020007073697A6520213D2070726F6772DE
:1035DA00616D53697A6500466C617368206661693A
:1035EA006C757265006E6F742D696E2D70726F67DF
:1035FA0000EFAC0005DECA05CA00000001000000A9
:10360A00003105000588049104A604B704000000EF
:0E361A0000DA1681177016A1168116CA160066
:00000001FF
