:100000000C9478010C94A0010C94A0010C94A00114
:100010000C94A0010C94A0010C94A0010C94A001DC
:100020000C94A0010C94C5050C94DF0F0C94661081
:100030000C94A0010C94A0010C94A0010C94A001BC
:100040000C94A0010C94A0010C94A0010C94A001AC
:100050000C94A0010C94A0010C94A0010C94CA076C
:100060000C94A0010C94B40A0C94020B0C94A00103
:100070000C94A0010C94A0010C94A0010C94A0017C
:100080000C94A0010C94A0010C94A0010C94A0016C
:100090000C94A0010C94A0010C94A0010C94A0015C
:1000A0000C94A0010C94A0010C94A001000000008D
:1000B000240027002A002D00300000000000250049
:1000C00028002B002E003100000000002300260035
:1000D00029002C002F000404040404030405020278
:1000E00002020403020202020606060606060404D1
:1000F00002020204040802011040804010204080E7
:10010000408008020401804020100201108010206D
:1001100040400000000200080E0000030401000B34
:1001200000000000000000000000000000000000CF
:10013000070605040100080A0B0C0D09080B000254
:10014000020201000904000001020200000524006F
:100150001001052401010104240206052406000102
:100160000705810310004009040100020A00000095
:100170000705020240000007058302400000040357
:1001800009042203410072006400750069006E00DA
:100190006F0020004C0065006F006E00610072006F
:1001A00064006F001803410072006400750069006C
:1001B0006E006F0020004C004C0043001201000252
:1001C00000000040412336800001010200011201BD
:1001D00000020200004041233680000101020001BC
:1001E00000C18081C105010902A1010901A10085A9
:1001F00001050919012903150025019503750181E0
:100200000295017505810305010930093109381589
:1002100081257F750895038106C0C005010906A1E7
:10022000018502050719E029E715002501750195EB
:10023000088102950175088103950675081500254A
:10024000650507190029658100C009040200010342
:100250000000000921010100012265000705840357
:1002600040000100000000000000002A2B280000D0
:10027000000000000000000000000000000000007E
:100280000000002C9EB4A0A1A2A434A6A7A5AE365F
:100290002D3738271E1F20212223242526B333B6CD
:1002A0002EB7B89F8485868788898A8B8C8D8E8FA0
:1002B000909192939495969798999A9B9C9D2F31A3
:1002C00030A3AD350405060708090A0B0C0D0E0F07
:1002D000101112131415161718191A1B1C1DAFB183
:1002E000B0B50000C101DA096E0C1B0FE911BA01AB
:1002F00011241FBECFEFDAE0DEBFCDBF13E0A0E0D8
:10030000B1E0EAEDF6E202C005900D92A635B10724
:10031000D9F716E0A6E5B3E001C01D92A530B107FC
:10032000E1F712E0CEEED2E004C02297FE010E9477
:100330005C13C43ED107C9F70E94C40C0C9460132F
:100340000C9400008130910559F46F5F7F4F89F460
:1003500083E894E064E045E020E00E949C07089573
:10036000892B39F46F5F7F4F21F483E894E00E947A
:100370002306089580E090E06FEF7FEF0E94A201D6
:10038000089581E090E06FEF7FEF0E94A201089551
:10039000CF93DF93C0E0D0E00BC0E091CD05F091AA
:1003A000CE050680F781E02D8DEC95E0099521962C
:1003B000E091CD05F091CE050480F581E02D8DEC26
:1003C00095E009951816190644F3209799F087E3EC
:1003D00095E060E071E00E94520E87E395E0BE0177
:1003E0004AE050E00E94200E87E395E06BE071E068
:1003F0000E94550EDF91CF91089587E395E060E06C
:1004000072EC0E948F0987E395E00E94F10988232E
:10041000D1F388E061E00E94CF088DEC95E040E0E8
:1004200052EC61E070E00E943D0B089587E395E097
:1004300068E171E00E94550E88E060E00E945C096E
:1004400068EC70E080E090E00E94200888E061E0C5
:100450000E945C096CE271E080E090E00E9420085C
:1004600008957F928F929F92AF92BF92CF92DF9228
:10047000EF92FF920F931F93CF93DF93782E8B0110
:100480000E9412084B015C01C0E0D0E06801EE243C
:10049000D7FCE094FE2C072D10E01FC0E091CD05A5
:1004A000F091CE050480F581E02D8DEC95E0099565
:1004B0001816190694F4E091CD05F091CE0506804A
:1004C000F781E02D8DEC95E00995FE01E351FC4F9D
:1004D00080832196C017D10759F00E94120868192D
:1004E00079098A099B096C157D058E059F05B0F277
:1004F0000E94C801872D90E0C817D90711F187E342
:1005000095E063E371E00E94520E87E395E0BE013F
:100510004AE050E00E94200E87E395E062E571E03A
:100520000E94520E87E395E0672D4AE050E00E945A
:10053000B00D87E395E067E671E00E94550ECFEFBE
:10054000DFEFCE01DF91CF911F910F91FF90EF90E0
:10055000DF90CF90BF90AF909F908F907F90089545
:10056000BF92CF92DF92EF92FF920F931F93CF93A0
:10057000DF93382FEB01142FD22EB02EE091CD0552
:10058000F091CE050190F081E02D8DEC95E0632F88
:100590000995209711F1DD2001F1012F10E07E0176
:1005A000E00EF11EC0E0D0E0C8018D0D911D6C0180
:1005B0000EC0E091CD05F091CE050190F081E02DC7
:1005C0008DEC95E0D7016D917D0109952196CE01C5
:1005D000800F911F8C159D0564F3E091CD05F0917E
:1005E000CE050190F081E02D8DEC95E060E209955B
:1005F0008B2D8E5F68E97AE30E9431029C01BFEF88
:100600008F3F9B0749F0823091054CF487E395E0DA
:100610006EE671E00E94550E2FEF3FEF38C08091DB
:10062000ED03843159F087E395E06FE771E00E94B4
:10063000520E87E395E06091ED0311C0D901119747
:10064000ED01C351DC4F8881803171F087E395E083
:100650006CE971E00E94520E87E395E0688140E109
:1006600050E00E94C20DD8CF822F8250EDEEF3E011
:10067000482F50E0BA016E0F7F1F02C08181819325
:100680009A01E617F707D1F7A351BC4F1C92C90195
:10069000DF91CF911F910F91FF90EF90DF90CF905E
:1006A000BF900895FF920F931F93CF93DF93182F5E
:1006B000F62E85E567E573E0412F22E000E00E9419
:1006C000B0028F5F9F4F29F487E395E065EB71E0FF
:1006D0001BC0C12FD0E0FE01E95AFC4F12923196A7
:1006E000F08286E4818311502F2D2D5F84E667E52B
:1006F00073E0412F00E00E94B0028F5F9F4F49F4EA
:1007000087E395E066EC71E00E94550E2FEF3FEF16
:1007100032C084E767E573E0412F23E00F2D0E948C
:10072000B0028F1541F4DE01A75ABC4FC0E0D0E003
:10073000282F30E01BC087E395E067ED71E0E4CF40
:100740008D91FE01E351FC4F9081981771F087E382
:1007500095E06FEF71E00E94520E87E395E0BE01D5
:100760004AE050E00E94330ED1CF2196C217D30742
:100770003CF320E030E0C901DF91CF911F910F9150
:10078000FF9008950F930E94C80181E8809356035B
:1007900081E466E573E040E021E001E00E94B00200
:1007A0008F5F9F4F09F468C087E395E063E372E0D1
:1007B0000E94520E87E395E06091ED0340E150E026
:1007C0000E94C20D82E88093560381E466E573E0DF
:1007D00040E021E001E00E94B0028F5F9F4F09F4EA
:1007E0004BC087E395E068E472E00E94520E87E315
:1007F00095E06091ED0340E150E00E94C20D83E876
:100800008093560381E466E573E040E021E001E077
:100810000E94B0028F5F9F4F79F18091ED0383308A
:1008200079F087E395E062E572E00E94520E87E37B
:1008300095E06091ED034AE050E00E94C20D1CC0BB
:1008400085E760E070E040E020E003E00E94B00255
:10085000039791F48091ED038E3189F08091EE033E
:10086000843969F08091EF03863049F087E395E0A1
:1008700068E672E00E94550E2FEF3FEF02C020E0C5
:1008800030E0C9010F910895FF920F931F93FF2449
:10089000F394C1C0E0913705F09138050680F781E7
:1008A000E02D87E395E009958C019091A0049923B0
:1008B00089F4009357030D30110529F4F092A30435
:1008C000F092A40491C00F30110509F08DC0F09290
:1008D000A5048AC09130C1F48091A3048823A1F0BB
:1008E000802F8C5F8093580380939F0487E395E06B
:1008F0006AE772E00E94520E87E395E0B8014AE091
:1009000050E00E94330E70C0E92FF0E080919F0408
:10091000282F30E021503040E217F30744F4809153
:10092000A304882321F0E95AFC4F00835DC0E2173D
:10093000F30709F059C08091A304882309F454C037
:10094000E95AFC4F00838091A4048823D9F00E94C7
:1009500016020E94C203892B29F087E395E067E81D
:1009600072E04DC080E567E573E040E020E000E024
:100970000E94B0028F5F9F4F29F487E395E065E9FD
:1009800072E03DC060919F04645082E00E94520377
:100990008F5F9F4F59F087E395E060EB72E00E9414
:1009A000550E8091A5048823B1F005C087E395E03A
:1009B00063EB72E024C081E567E573E040E020E08E
:1009C00000E00E94B0028F5F9F4FD9F487E395E06B
:1009D00065EC72E014C01092A00410929F04109273
:1009E000A4041092A50417C08091A0048F5F809387
:1009F000A004863980F087E395E060EE72E00E9403
:100A0000550E1092A00410929F041092A40410920C
:100A1000A5041092A304E0913705F09138050480F5
:100A2000F581E02D87E395E00995181619060CF479
:100A300031CFE091CD05F091CE050480F581E02D18
:100A40008DEC95E00995181619068CF5E091CD0509
:100A5000F091CE050680F781E02D8DEC95E00995AB
:100A6000182F87E395E067EF72E00E94520E6091C5
:100A7000A1047091A20487E395E04AE050E00E944F
:100A8000200E87E395E06AE073E00E94520E87E350
:100A900095E0612F40E150E00E94C20D8091A104D9
:100AA0009091A20401969093A2048093A1041F91B7
:100AB0000F91FF9008950F931F93CF93DF93FC0145
:100AC000738D76957170A685B7859585772329F006
:100AD0008C91892309F454C004C08C91892309F0B6
:100AE0004FC08389948920E001972FEF8F3F9207B1
:100AF000D9F7C589D689A685B785158560E031E027
:100B000040E050E000E0CE01202F01972FEF8F3F13
:100B10009207D9F78C91812311F0632B03C0832FA7
:100B200080956823330F4F5F5F4F4830510559F769
:100B30008789908D20E001972FEF8F3F9207D9F79B
:100B4000711160958091E8042091E90490E001968C
:100B50008F73907030E08217930779F0E091E8048A
:100B6000F0E0E855FB4F60838091E80490E0019647
:100B70008F7390708093E80403C0838D8160838FAE
:100B8000DF91CF911F910F9108951F920F920FB691
:100B90000F9211242F933F934F935F936F937F9303
:100BA0008F939F93AF93BF93EF93FF938091A6048E
:100BB0009091A704009711F00E945B05FF91EF91BF
:100BC000BF91AF919F918F917F916F915F914F9165
:100BD0003F912F910F900FBE0F901F901895FC0121
:100BE0002485922F9850943038F0822F8E50843084
:100BF00018F08C50833030F540916B00943020F425
:100C000030E02450304013C02E3011F487EF17C06D
:100C10002F3011F48DEF13C0203111F48BEF0FC082
:100C2000213111F48EEF0BC030E02651304081E0CD
:100C300090E002C0880F991F2A95E2F780958423DF
:100C400080936B000895FC018AE193E09183808397
:100C5000CF010E94EF0508952091A6043091A704CA
:100C60002817390731F49091E9048091E804981726
:100C700019F42FEF3FEF0FC0E091E904F0E0E855E1
:100C8000FB4F20818091E90490E001968F73907072
:100C90008093E90430E0C90108952091A6043091C1
:100CA000A7042817390719F020E030E00EC0809122
:100CB000E8042091E90490E0805C9F4F821B910939
:100CC00060E470E00E9411139C01C90108950F9324
:100CD0001F93DC0159968D919C915A97892B49F469
:100CE00081E090E013969C938E93129720E030E081
:100CF00097C00FB7F8945B968C915B975196ED91E6
:100D0000FC91529750962C91509781FF8DC0808115
:100D1000822B808359968D919C915A97059620E05D
:100D200001972FEF8F3F9207D9F75B968C915B97D6
:100D300081FF35C031E040E050E070E010E0832FEB
:100D400090E0862397235196ED91FC91529750960F
:100D50002C915097892B29F080812095282320837E
:100D600003C08081822B808359968D919C915A97E4
:100D7000212F01972FEF8F3F9207D9F7330F4F5F46
:100D80005F4F48305105D9F65196ED91FC9152973D
:100D9000908150968C9150978095892333C031E093
:100DA00040E050E070E010E0832F90E0862397232E
:100DB0005196ED91FC91529750962C915097892B1A
:100DC00021F08081822B808304C08081209528239C
:100DD000208359968D919C915A97212F01972FEF3F
:100DE0008F3F9207D9F7330F4F5F5F4F4830510560
:100DF000D9F65196ED91FC915297808150969C9135
:100E00005097892B80830FBF59968D919C915A974B
:100E100020E001972FEF8F3F9207D9F721E030E0D4
:100E2000C9011F910F910895808120952823208367
:100E300071CF2091A6043091A7042817390749F4EF
:100E40009FB7F8941092E8048091E8048093E90435
:100E50009FBF08952091A6043091A7042817390751
:100E600031F49091E9048091E804981719F42FEF78
:100E70003FEF0AC0E091E904F0E0E855FB4F8081C4
:100E8000282F332727FD3095C90108951F93CF934D
:100E9000DF93EC01162F862F60E00E94CF088B8D28
:100EA00081FD04C0812F61E00E945C091C87212F15
:100EB00030E0C9018C509F4FFC0184918D872A52EC
:100EC0003F4FF9016491E62FF0E0EE0FFF1FE8536A
:100ED000FF4F859194919F878E87DF91CF911F91CE
:100EE0000895FF920F931F938C01F62E862F61E0D9
:100EF0000E94CF088F2D61E00E945C098F2D90E049
:100F0000FC01EC50FF4FE491D8015096EC935097C0
:100F10008A529F4FFC016491E62FF0E0EE0FFF1F15
:100F2000E654FF4F8591949152969C938E935197DE
:100F30001F910F91FF900895FF920F931F938C01C3
:100F4000F62EFC011382128288EE93E0A0E0B0E05E
:100F500084839583A683B7838AE193E0918380831A
:100F6000148A138A168A158A108E178A128E118E89
:100F7000838D2170220F8C7F822B838FC801642F79
:100F80000E947107C8016F2D0E9446071F910F91A3
:100F9000FF9008951F920F920FB60F9211242F9376
:100FA0003F938F939F93AF93BF938091EE04909163
:100FB000EF04A091F004B091F1043091F204019695
:100FC000A11DB11D232F2D5F2D3720F02D57019628
:100FD000A11DB11D2093F2048093EE049093EF04C1
:100FE000A093F004B093F1048091EA049091EB0493
:100FF000A091EC04B091ED040196A11DB11D809368
:10100000EA049093EB04A093EC04B093ED04BF9139
:10101000AF919F918F913F912F910F900FBE0F90A5
:101020001F9018958FB7F8942091EE043091EF043B
:101030004091F0045091F1048FBFB901CA010895A5
:101040009B01AC017FB7F8948091EA049091EB0486
:10105000A091EC04B091ED0466B5A89B05C06F3F6C
:1010600019F00196A11DB11D7FBFBA2FA92F982F8E
:101070008827860F911DA11DB11D62E0880F991F61
:10108000AA1FBB1F6A95D1F7BC012DC0FFB7F8940A
:101090008091EA049091EB04A091EC04B091ED04EE
:1010A000E6B5A89B05C0EF3F19F00196A11DB11D43
:1010B000FFBFBA2FA92F982F88278E0F911DA11D32
:1010C000B11DE2E0880F991FAA1FBB1FEA95D1F757
:1010D000861B970B885E9340C8F2215030404040F9
:1010E000504068517C4F211531054105510571F67D
:1010F0000895789484B5826084BD84B5816084BD90
:1011000085B5826085BD85B5816085BDEEE6F0E080
:10111000808181608083E1E8F0E0108280818260DC
:101120008083808181608083E0E8F0E0808181605D
:101130008083E1E9F0E0808182608083808181604A
:101140008083E0E9F0E0808181608083E1ECF0E081
:1011500080818460808380818260808380818160DF
:101160008083E3ECF0E0808181608083E0ECF0E05C
:10117000808182608083E2ECF0E080818160808306
:10118000EAE7F0E0808184608083808182608083F0
:101190008081816080838081806880830895CF937F
:1011A000DF93482F50E0CA018C509F4FFC013491CF
:1011B0004A525F4FFA018491882369F190E0880FC9
:1011C000991FFC01E455FF4FA591B491FC01E65431
:1011D000FF4FC591D491662351F42FB7F8948C91A9
:1011E000932F909589238C93888189230BC062303B
:1011F00061F42FB7F8948C91932F909589238C9359
:101200008881832B88832FBF06C09FB7F8948C9169
:10121000832B8C939FBFDF91CF910895883071F11C
:10122000893068F4823031F1833020F4813009F064
:1012300042C01DC0833089F08430E9F512C08B3084
:1012400059F18C3028F48930E9F08A30A1F51EC0BC
:101250008C3031F18E3079F529C0809180008F7704
:1012600003C0809180008F7D80938000089584B5B5
:101270008F7702C084B58F7D84BD089580919000E2
:101280008F7707C0809190008F7D03C08091900080
:10129000877F8093900008958091C0008F7703C06E
:1012A0008091C0008F7D8093C00008958091C2001E
:1012B000877F8093C2000895FF920F931F93F62EAD
:1012C000482F50E0CA018E5E9E4FFC012491CA0156
:1012D0008C509F4FFC0114914A525F4FFA010491C8
:1012E0000023C9F0222319F0822F0E940E09E02F5B
:1012F000F0E0EE0FFF1FE654FF4FA591B4919FB7AA
:10130000F894FF2021F48C911095812302C08C91D8
:10131000812B8C939FBF1F910F91FF90089508958B
:101320002091330530913405809135059091360533
:10133000281B390B2F733070C90108952091330594
:10134000309134058091350590913605281739077D
:1013500019F42FEF3FEF09C0E0913505F091360504
:10136000ED50FB4F8081282F30E0C9010895209176
:101370003305309134058091350590913605281755
:10138000390719F42FEF3FEF13C0E0913505F091C5
:101390003605ED50FB4F2081809135059091360543
:1013A00001968F739070909336058093350530E0E9
:1013B000C901089510923A051092390588EE93E01C
:1013C000A0E0B0E080933B0590933C05A0933D05E1
:1013D000B0933E058AE293E09093380580933705F9
:1013E00008951F93109113036AE070E080E090E08D
:1013F0000E942008111111E0812F1F9108950F9371
:101400001F93DF93CF930F92CDB7DEB78C01698323
:1014100080911303882369F083E0BE016F5F7F4FE3
:1014200041E050E00E943A0F1816190614F49C018E
:1014300007C081E090E0F8019383828320E030E0F0
:10144000C9010F90CF91DF911F910F91089583E013
:101450000E94110F0895CF93DF9312C082E00E9483
:101460009C0E2FEF8F3F9207C9F0E0913305F0916A
:101470003405ED50FB4F8083D0933405C093330582
:10148000C0913305D09134052196CF73D0708091EF
:10149000350590913605C817D90701F7DF91CF912F
:1014A0000895FC0180818E5F808380E86CE371E0A9
:1014B00042E450E00E94B50E0895FC0181819081C4
:1014C000913A59F4813209F04CC080E06CE073E04D
:1014D00047E050E00E94B50E42C0913209F041C091
:1014E000803239F48CE093E067E070E00E94F90EFE
:1014F00036C0823209F035C0828180931303809117
:101500000C0390910D03A0910E03B0910F03805B2B
:101510009440A040B04019F58091130380FD12C0A3
:1015200087E797E790930108809300082BE088E114
:1015300090E00FB6F894A895809360000FBE2093BA
:1015400060000DC088E10FB6F8948093600010929F
:1015500060000FBEA895109201081092000881E06B
:10156000089580E0089508951F920F920FB60F928C
:1015700011242F933F934F938F939F93EF93FF9358
:101580008091C80082FD1DC04091CE00209185054C
:10159000309186052F5F3F4F2F7330708091870504
:1015A000909188052817390771F0E0918505F09131
:1015B0008605EB5BFA4F40833093860520938505C3
:1015C00002C08091CE00FF91EF919F918F914F913A
:1015D0003F912F910F900FBE0F901F901895E091A3
:1015E000D905F091DA05E05CFF4F8191919120815E
:1015F0003181821B930B8F739070892B11F00E94A5
:10160000B30A08951F920F920FB60F9211242F93D1
:101610003F938F939F93EF93FF932091C905309150
:10162000CA058091CB059091CC052817390731F474
:101630008091C9008F7D8093C90014C0E091CB05D3
:10164000F091CC05E757FA4F20818091CB0590911E
:10165000CC0501968F7390709093CC058093CB0549
:101660002093CE00FF91EF919F918F913F912F9109
:101670000F900FBE0F901F901895AF92BF92DF9200
:10168000EF92FF920F931F93CF93DF93EC017A01B8
:101690008B01DD24403081EE580780E0680780E050
:1016A000780711F0DD24D39491E0A92EB12CEC89B8
:1016B000FD89DD2069F0C50108A002C0880F991FCF
:1016C0000A94E2F7808360E079E08DE390E005C062
:1016D000108260E874E88EE190E0A80197010E9412
:1016E000241321503040404050405695479537953F
:1016F000279580E12030380720F0DD2011F0DD242F
:10170000D6CFE889F9893083EA89FB89208319A239
:10171000EE89FF89408121E030E0C9010C8C02C0D4
:10172000880F991F0A94E2F7482B4083EE89FF89BE
:101730004081C9010D8C02C0880F991F0A94E2F7FD
:10174000482B4083EE89FF894081C9010E8C02C07D
:10175000880F991F0A94E2F7482B4083EE89FF898E
:1017600080810F8C02C0220F331F0A94E2F720956C
:1017700028232083DF91CF911F910F91FF90EF904D
:10178000DF90BF90AF900895DC011C96ED91FC9125
:101790001D97E05CFF4F2191319180819181281B41
:1017A000390B2F733070C9010895DC011C96ED913F
:1017B000FC911D97E05CFF4F20813181E054F040A7
:1017C000DF01AE5BBF4F8D919C91119728173907B0
:1017D00019F42FEF3FEF07C08D919C91E80FF91F8F
:1017E0008081282F30E0C9010895DC011C96ED911D
:1017F000FC911D97E05CFF4F20813181E054F04067
:10180000DF01AE5BBF4F8D919C911197281739076F
:1018100019F42FEF3FEF10C08D919C911197E80FB5
:10182000F91F20818D919C91119701968F73907073
:1018300011969C938E9330E0C9010895DC01919636
:101840008C919197882339F05496ED91FC9155979E
:10185000808186FFF9CF91961C920895CF93DF93F4
:10186000EC01EE85FF85E05CFF4F20813181E05483
:10187000F0402F5F3F4F2F733070DF01AE5BBF4FE3
:101880008D919C91119728173907D1F3E05CFF4F98
:1018900080819181E054F040E80FF91F6083EE856C
:1018A000FF85E05CFF4F31832083EE89FF89208133
:1018B00081E090E00F8C02C0880F991F0A94E2F734
:1018C000282B208381E089A3EC89FD8980818064B5
:1018D000808381E090E0DF91CF9108951092D00550
:1018E0001092CF0588EE93E0A0E0B0E08093D105A0
:1018F0009093D205A093D305B093D4058CE393E0E5
:101900009093CE058093CD0585E495E09093DA051C
:101910008093D90589E895E09093DC058093DB05F9
:101920008DEC90E09093DE058093DD058CEC90E0EB
:101930009093E0058093DF0588EC90E09093E205BA
:101940008093E10589EC90E09093E4058093E305B2
:101950008AEC90E09093E6058093E5058EEC90E0AC
:101960009093E8058093E70584E08093E90583E0A0
:101970008093EA0587E08093EB0585E08093EC0592
:1019800081E08093ED050895CF93DF930E9479085D
:1019900087EF95E00E941C0F0E94FD01CFEEDAE078
:1019A0000E9444042097E1F30E94EF0AF9CFCF92FE
:1019B000DF92EF92FF920F931F93CF93DF937C01FF
:1019C0006B018A01C0E0D0E00FC0D6016D916D01BE
:1019D000D701ED91FC910190F081E02DC7010995AF
:1019E000C80FD91F015010400115110571F7CE0124
:1019F000DF91CF911F910F91FF90EF90DF90CF90EB
:101A00000895EF92FF920F931F938C01DC01ED91EB
:101A1000FC910190F081E02D6DE009957C01D801E9
:101A2000ED91FC910190F081E02DC8016AE00995EB
:101A30009C012E0D3F1DC9011F910F91FF90EF904A
:101A40000895CF93DF93EC016115710519F420E03F
:101A500030E00FC0DB010D900020E9F71197A61BC5
:101A6000B70BE881F9810280F381E02DAD01099582
:101A70009C01C901DF91CF9108954F925F927F92AF
:101A80008F929F92AF92BF92CF92DF92EF92FF928E
:101A90000F931F93DF93CF93CDB7DEB7A1970FB608
:101AA000F894DEBF0FBECDBF2C01742ECB012230C7
:101AB00008F42AE019A231E2C32ED12CCC0EDD1E8F
:101AC000822E9924AA24BB24672D752FA501940189
:101AD0000E94241379018A01C801B701A50194016C
:101AE0000E94F212472D461B0894C108D1084A30C3
:101AF00014F4405D01C0495CF6014083E114F10437
:101B00000105110521F07E2C5F2DC801DDCFC2013A
:101B1000B6010E94210DA1960FB6F894DEBF0FBE4C
:101B2000CDBFCF91DF911F910F91FF90EF90DF908C
:101B3000CF90BF90AF909F908F907F905F904F908D
:101B40000895DC012115310541F4ED91FC910190DE
:101B5000F081E02D642F099508950E943D0D0895B0
:101B6000EF92FF920F931F939A01E62EFF2400E05D
:101B700010E0B801A7010E94A10D1F910F91FF90E5
:101B8000EF900895CF92DF92EF92FF920F931F9301
:101B90006C01E62E9A01FF2400E010E0B801A701D5
:101BA0000E94A10D8C01C6010E94010D080F191F92
:101BB000C8011F910F91FF90EF90DF90CF90089593
:101BC000CF92DF92EF92FF920F931F93CF93DF9309
:101BD000EC016A017B012115310541F4E881F981AD
:101BE0000190F081E02D642F09951FC02A30310546
:101BF000D1F477FF17C0E881F9810190F081E02DE1
:101C00006DE209958C0144275527BA014C195D09ED
:101C10006E097F09CE012AE00E943D0D9801280F30
:101C2000391F04C02AE00E943D0D9C01C901DF91CB
:101C3000CF911F910F91FF90EF90DF90CF9008957B
:101C4000EF92FF920F931F937B019A010027F7FCFD
:101C50000095102FB801A7010E94E00D1F910F9170
:101C6000FF90EF900895CF92DF92EF92FF920F9343
:101C70001F936C017B019A010027F7FC0095102F40
:101C8000B801A7010E94E00D8C01C6010E94010D60
:101C9000080F191FC8011F910F91FF90EF90DF905F
:101CA000CF9008950E94210D0895EF92FF920F9317
:101CB0001F937C010E94210D8C01C7010E94010D20
:101CC000080F191FC8011F910F91FF90EF90089501
:101CD000282F8091F1058823C1F057FF1AC015C045
:101CE00028989093F0058091F1008193E217F30713
:101CF000B9F74115510539F08091F200882319F4A4
:101D00008BE68093E800AFBF02C04FEF5FEFCA01E0
:101D10000895AFB7F89427702093E9008091F200FE
:101D2000282F30E0241735070CF4A901FB019B0193
:101D3000240F311D94E6DACFDF93CF930F92CDB706
:101D4000DEB7BE016F5F7F4F41E050E00E94680E3A
:101D5000019719F02FEF3FEF03C08981282F30E062
:101D6000C9010F90CF91DF910895FF920F931F93B8
:101D7000F82E142F052F4091F4055091F505212FD1
:101D8000302FC901DC01FB016EEF29C0F7FE02C054
:101D9000949101C090812091F2053091F3052417B0
:101DA0003507ACF48091E8008570E1F38091E8009C
:101DB00082FF03C02FEF3FEF17C09093F100C901DE
:101DC00001968F739070892B11F46093E8002F5F58
:101DD0003F4F3093F3052093F205119731961097FA
:101DE000A9F6812F902F9C01C9011F910F91FF909F
:101DF00008959C018091E80082FFFCCFF901260F35
:101E0000311D03C08091F1008193E217F307D1F7F0
:101E1000289884E68093F0058BEF8093E800CB014F
:101E200008958093E9008091F200882319F08AE3F5
:101E30008093E800089508951092F10581E0809361
:101E4000D70080EA8093D80082E189BD09B400FE02
:101E5000FDCF61E070E080E090E00E94200880E922
:101E60008093D8008CE08093E2001092E000559AB5
:101E7000209A08955F926F927F928F929F92AF9275
:101E8000BF92CF92DF92EF92FF920F931F93CF9367
:101E9000DF93E82E842E752E8091F105882371F151
:101EA0008B01242F352FC901EC017AEFF72E67E063
:101EB000962E9E2050E4552E8E2D90E040E2A42ECA
:101EC000B12CA822B9223AE3632E20E4C22ED12CF1
:101ED000C822D92258C09FB7F8949092E900809107
:101EE000E80085FD02C020E004C08091F200252DAD
:101EF000281B9FBF222361F4FA9419F42FEF3FEFC0
:101F00004DC061E070E080E090E00E9420083BC09E
:101F1000822F90E0C817D9070CF42C2FC21BD109CF
:101F20004FB7F8949092E900A114B10421F406C0CF
:101F30001092F10021502223D9F719C0E7FC03C009
:101F4000F801922F10C0C801322F06C0FC01019683
:101F5000E491E093F10031503323C1F706C0819141
:101F60008093F10091509923D1F7020F111D8091B8
:101F7000E80085FF05C0209729F4C114D10411F0B1
:101F80006092E8004FBF209709F0A5CF5D9884E6E6
:101F90008093EF05282D372DC9019C01C901DF91E0
:101FA000CF911F910F91FF90EF90DF90CF90BF9056
:101FB000AF909F908F907F906F905F9008951F9249
:101FC0000F920FB60F9211242F933F934F935F936D
:101FD0006F937F938F939F93AF93BF93EF93FF93F1
:101FE0008091E1001092E100982F83FF0FC01092C2
:101FF000E90081E08093EB001092EC0082E3809393
:10200000ED001092F10588E08093F00092FF34C05B
:1020100083E08093E9008091F200882319F08AE33D
:102020008093E8008FB7F89492E09093E900909144
:10203000F2008FBF992321F087E395E00E942B0ADD
:102040008091EF05882351F08091EF0581508093B6
:10205000EF058091EF05882309F45D9A8091F005E2
:10206000882351F08091F00581508093F005809194
:10207000F005882309F4289AFF91EF91BF91AF9161
:102080009F918F917F916F915F914F913F912F9190
:102090000F900FBE0F901F9018950F931F93DF9313
:1020A000CF930F92CDB7DEB719828E010F5F1F4F0E
:1020B000C8010E94510AC8010E94E612898190E07D
:1020C0000F90CF91DF911F910F9108951F920F9262
:1020D0000FB60F921124EF92FF921F932F933F930D
:1020E0004F935F936F937F938F939F93AF93BF9320
:1020F000EF93FF93DF93CF93CDB7DEB76197DEBF4A
:10210000CDBF1092E9008091E80083FF0FC1FE016E
:1021100031969E01275F3F4F03C08091F10081936C
:10212000E217F307D1F7289884E68093F00582EF51
:102130008093E800998197FF05C08091E80080FFB7
:10214000FCCF03C08EEF8093E800292F30E0C90157
:1021500080769070892B09F0C2C08A81882329F487
:102160001092F1001092F100D6C0813009F4D3C072
:10217000833009F4D0C0853049F48091E80080FFB5
:10218000FCCF8B8180688093E300C5C0863009F066
:102190007CC01C81EF80F8841230C1F51092E900F8
:1021A0001092F3051092F2051092F5051092F405C5
:1021B0000E944D1099E0FE013996DF01292F1D92F2
:1021C0002A95E9F799871A8791E09E8790E8988B7E
:1021D0009AEF998B2091F2053091F305275F3F4FDD
:1021E0003C872B878D871092E9001092F30510929F
:1021F000F205F092F505E092F40580E0BF0149E0B8
:1022000050E00E94B50E0E944D1085C01092E9006A
:102210001092F3051092F205F092F505E092F405A4
:10222000123241F482E290E00E94DE12892B09F41E
:1022300076C071C0113079F488E0E816F10419F421
:1022400081E08093F6058091F605882309F06BC044
:10225000ECEBF1E013C0133009F061C08B818823EF
:1022600019F4EEE7F1E00AC0823019F4E2E8F1E097
:1022700005C0813009F053C0E4EAF1E0449180E800
:10228000BF0150E00E94B50E46C0873009F447C038
:10229000883021F481E08093F1003DC08930D9F588
:1022A00023703070232BD9F5E1EEF1E091E031E0BD
:1022B00026E39093E9003093EB0084918093EC0047
:1022C0002093ED009F5F3196953099F78EE78093CC
:1022D000EA001092EA008B818093F1051CC08F8187
:1022E00098851092E9001092F3051092F2059093F0
:1022F000F5058093F4058D81882329F4CE0101969C
:102300000E945D0A06C0823051F4CE0101960E94FF
:10231000AF11882321F08EEF8093E80007C081E29F
:102320008093EB0003C0EEECF1E0A8CF6196DEBF36
:10233000CDBFCF91DF91FF91EF91BF91AF919F9171
:102340008F917F916F915F914F913F912F911F914D
:10235000FF90EF900F900FBE0F901F901895FC010B
:1023600091818081813A31F4913089F080E093301D
:1023700089F40DC0813269F49B3021F4828180930D
:10238000140305C09A3029F482818093150381E0FB
:10239000089580E00895EF92FF920F931F938C01B0
:1023A000E62EDC01ED91FC910480F581E02D09958C
:1023B000F82ED801ED91FC910680F781E02DC8013F
:1023C0006E2D09958F2D90E01F910F91FF90EF904A
:1023D00008951092F8051092FC051092FB058CE40C
:1023E00093E09093FA058093F9050895EF92FF9298
:1023F0000F931F93DF93CF930F92CDB7DEB78983EF
:102400008B017A0184E0BE016F5F7F4F41E050E0B5
:102410000E943A0F84E4B801A7010E943A0F0F907E
:10242000CF91DF911F910F91FF90EF90089582E07F
:1024300048E050E00E94F6110895FC0116821782D0
:10244000108611861286138614823496BF010E946C
:1024500017120895DC01683810F0685829C0E62F7B
:10246000F0E067FF13C0E058F04081E090E002C068
:10247000880F991FEA95E2F7809514962C9114978E
:10248000282314962C93149760E012C0ED59FD4F49
:102490006491662319F420E030E01DC067FF08C096
:1024A00014968C9114978D7F14968C9314976F7754
:1024B000FD0190E0662321F08681861709F41682DB
:1024C0009F5F31969630B1F7CD011496BD010E9401
:1024D000171221E030E0C9010895CF93DF93DC01AA
:1024E000683810F0685825C0E62FF0E067FF12C08A
:1024F000E058F04081E090E002C0880F991FEA9513
:10250000E2F714962C911497282B14962C93149779
:1025100060E00FC0ED59FD4F64916623D9F167FF6C
:1025200008C014968C911497826014968C9314971B
:102530006F7716968C9116978617A9F117968C913E
:102540001797861781F118968C911897861759F16D
:1025500019968C911997861731F11A968C911A97C2
:10256000861709F11B968C911B978617E1F0ED01F8
:10257000E0E0F0E09E2F8E81882321F4EA0FFB1F1C
:10258000668306C09F5F31962196E630F10591F78C
:10259000963049F481E090E013969C938E931297C5
:1025A00020E030E007C0CD011496BD010E94171253
:1025B00021E030E0C901DF91CF91089580E865EE18
:1025C00071E045E650E00E94B50E0895FC0180815F
:1025D0008F5F808380E86AE472E049E150E00E9406
:1025E000B50E0895629FD001739FF001829FE00DA8
:1025F000F11D649FE00DF11D929FF00D839FF00D82
:10260000749FF00D659FF00D9927729FB00DE11D2D
:10261000F91F639FB00DE11DF91FBD01CF0111240A
:10262000089597FB092E07260AD077FD04D02ED0F7
:1026300006D000201AF4709561957F4F0895F6F743
:10264000909581959F4F0895A1E21A2EAA1BBB1B5E
:10265000FD010DC0AA1FBB1FEE1FFF1FA217B3076E
:10266000E407F50720F0A21BB30BE40BF50B661F84
:10267000771F881F991F1A9469F760957095809548
:1026800090959B01AC01BD01CF010895AA1BBB1B16
:1026900051E107C0AA1FBB1FA617B70710F0A61B62
:1026A000B70B881F991F5A95A9F780959095BC0183
:1026B000CD010895EE0FFF1F0590F491E02D0994D0
:1026C00012E0CEEED2E004C0FE010E945C1322961E
:0A26D000C03FD107C9F7F894FFCF0F
:1026DA00446973636172646564200020657874726A
:1026EA006120627974657300426F756E63696E6703
:1026FA00207468652041726475696E6F003A200023
:10270A002C0000726561645F726573706F6E736529
:10271A0028292074696D656F75742120726561645A
:10272A002000206279746573206275742065787060
:10273A006563746564200020627974657300496E6C
:10274A0076616C696420726573706F6E736500459B
:10275A00787065637465642053544B5F494E5359CE
:10276A004E43206275742077617320004578706546
:10277A00637465642053544B5F4F4B206275742019
:10278A0077617320006C6F616420616464722066F3
:10279A0061696C65640070616765207061676520B6
:1027AA006661696C6564004572726F723A2072657F
:1027BA006164206C656E20646F6573206E6F74208F
:1027CA006D617463682064617461206C656E004594
:1027DA0072726F723A207265706C792062756666E1
:1027EA00657220646F6573206E6F74206D61746307
:1027FA006820777269746520627566666572206101
:10280A007420004669726D7761726520766572730D
:10281A00696F6E20697320004D696E6F722069734B
:10282A0020004578706563746564203078332062CF
:10283A0075742077617320005369676E61747572CD
:10284A006520696E76616C69640070616765206CE9
:10285A00656E2069732000436865636B2066616951
:10286A006C6564210053544B5F454E5445525F508A
:10287A00524F474D4F4445206661696C7572650039
:10288A006F6B0053656E64207061676520666169CD
:10289A006C7572650053544B5F4C454156455F5009
:1028AA00524F474D4F4445206661696C7572650009
:1028BA004572726F72207265616420706173742050
:1028CA0062756666657200556E65787065637465D3
:1028DA0064207265706C79204000200000E10000DD
:1028EA00000000000101000000006706D70C4D0639
:1028FA002C062A07190700000000FF09D70C9009C7
:10290A00B7099E09270A2B0A000000002E0CD70CD3
:10291A00C40BF50BD50B1E0C00000000CB11D70C15
:06292A006D122A121D12BD
:00000001FF
