:100000000C9437000C945F000C945F000C945F001C
:100010000C945F000C945F000C945F000C945F00E4
:100020000C945F000C945F000C945F000C945F00D4
:100030000C945F000C945F000C945F000C945F00C4
:100040000C94AC030C945F000C943E040C948C0450
:100050000C945F000C945F000C945F000C945F00A4
:100060000C945F000C945F0061006A03F805112492
:100070001FBECFEFD4E0DEBFCDBF11E0A0E0B1E006
:10008000E2E6FDE002C005900D92AA32B107D9F771
:1000900012E0AAE2B1E001C01D92A43AB107E1F773
:1000A00010E0CEE6D0E004C02297FE010E94AB062D
:1000B000C836D107C9F70E944E060C94AF060C94BF
:1000C0000000EF92FF920F931F938AE291E00E944B
:1000D000610188EA91E00E94F40081EB91E00E94C6
:1000E0002F0184ECE82E81E0F82E4091010150911F
:1000F00002016091030170910401009105011091CA
:1001000006012091070130910801C7010E944502B4
:100110008CEC91E0B70140E051E021E00E945302F5
:100120008FED91E00E9400011F910F91FF90EF90E1
:1001300008958AE291E06CEC71E00E94FA028AE292
:1001400091E068EE73E00E947F038823A9F08AE2C1
:1001500091E00E94A8010E94F5008B3899F48AE290
:1001600091E00E94A8016FED71E00E940C018FEDFB
:1001700091E00E94010108958AE291E00E94A801A5
:100180000E94FB0008958AE291E00E94A9018AE2A0
:1001900091E00E94A8010E94F800882359F08AE2A9
:1001A00091E00E94A8010E94F500803949F40E9464
:1001B000990008958AE291E00E94A8010E94FB0044
:1001C00008950F931F9302E812E0C80140E855E23A
:1001D00060E070E00E94C7048AE291E0B8010E94EA
:1001E00073011F910F9108950895FC018281089574
:1001F000FC0187810895FC018085811181E00895CB
:100200000895FC0190E00190F081E02D8481882325
:1002100009F491E0892F0895FC01DB01808191812F
:1002200011969C938E93828112968C93129787815C
:1002300017968C931797858115968C9315978085C3
:1002400018968C931897868116968C9316978381AF
:1002500013968C931397848114968C930895DF934F
:10026000CF93CDB7DEB728970FB6F894DEBF0FBE99
:10027000CDBFFC0185E191E0918380833B96DE0157
:10028000119688E00D9001928150E1F728960FB603
:10029000F894DEBF0FBECDBFCF91DF9108958BE004
:1002A00008951F93FC011681A081B18112962D91B2
:1002B0003C911397F90109951150181B812F1F913B
:1002C0000895FC0112861186148615861782108601
:1002D00015820E9691838083E458FF4F82E892E066
:1002E000918380830895FC01E458FF4F71836083FC
:1002F0000895FC01E458FF4FA081B181ED91FC917C
:1003000011970480F581E02DCD01099520E0892B1E
:1003100009F021E0822F0895FC01E458FF4FA081ED
:10032000B181ED91FC9111970680F781E02DCD010F
:1003300009950895FC01E458FF4FA081B181ED912A
:10034000FC9111970284F385E02DCD010995089564
:100350000895DF92EF92FF920F931F93CF93DF9355
:10036000EC018F81882321F48885882309F477C0E4
:100370001A8619861C861F821A821B821C821D8285
:100380001E8218866CC0CE010E948C01982F8B872C
:100390008A85882399F09E3711F483E03BC09D370E
:1003A00069F4CE010E947901882331F0CE010E94C8
:1003B0008C0181278B8702C0098759C089858823D2
:1003C00021F08B8581278B8719868A85833020F0E1
:1003D0008C859B85890F8C878A85813061F081307F
:1003E00028F0823061F0833091F40DC08B858E3718
:1003F000F1F50A873CC08B858B83DA8638C08B8504
:100400008C83EA8634C08B858A83FA8630C08F3627
:1004100018F082E0888731C0282F30E08C8190E08E
:1004200003962817390781F48C858F3F31F48B852B
:100430008D8381E08F83188602C081E088878A855A
:1004400084508E831A8619C0E881F981E20FF31F68
:1004500034978B8580838A858F5F8A8708C032E0D6
:10046000D32E01E023E0E22E94E0F92E10E2CE013B
:100470000E947901882309F086CFDF91CF911F91E7
:100480000F91FF90EF90DF9008950F931F93FC0161
:100490004083518362837383048315832683378368
:1004A0001F910F910895CF93DF93FC0180E1828328
:1004B00081E083835583448326838DE091E091839B
:1004C0008083EF012796DB0188E00D90099281502F
:1004D000E1F78EEF9FEF908B8787118A128ADF9169
:1004E000CF910895FC01662311F48285089561304F
:1004F00011F481850895623029F487819085A18562
:10050000B28512C0633011F487810895643011F40C
:1005100086850895653011F485850895663049F41F
:1005200083859485A585B685892F9A2FAB2FBB2708
:100530000895673011F483850895683011F4808937
:100540000895693011F4878508956A3011F481891E
:1005500008956B3011F4828908950480F581E02DAF
:10056000E60FF11D3C9780810895FC018681845F30
:1005700008950F93DF93CF9300D0CDB7DEB7FC0182
:10058000062F442321F1862F8D57823020F06131D0
:1005900011F06331E1F4CF0184589F4F9A8389832E
:1005A000DC01ED91FC91A081B1812D913C91CF01B5
:1005B0006DE7F9010995A981BA81ED91FC91A081BE
:1005C000B18160E260272D913C91CF010BC0E458CE
:1005D000FF4F0190F081E02DA081B1812D913C91E0
:1005E000CF01602FF90109950F900F90CF91DF9106
:1005F0000F910895CF92DF92FF920F931F93CF93A5
:10060000DF936C01EB016EE740E00E94B902E881E4
:10061000F9810280F381E02DCE010995082FE88150
:10062000F9810280F381E02DCE010995F82E10E0CA
:100630000E5F1F4FC601612F41E00E94B90282E0A8
:10064000F80EC6016F2D41E00E94B902C6016A8111
:1006500041E00E94B902C6016B8141E00E94B902EB
:10066000FB808A81F80E00E010E018C0E881F98173
:100670000190F081E02DCE01602F0995682FC60111
:1006800041E00E94B902E881F9810190F081E02DFA
:10069000CE01602F0995F80E0F5F1F4FE881F98199
:1006A0000280F381E02DCE01099590E0081719072B
:1006B000ECF2F094C6016F2D41E00E94B902C60130
:1006C0000E949A01DF91CF911F910F91FF90DF90CF
:1006D000CF9008951092E9011092EA011092EB0177
:1006E0001092EC018FEF9FEFA0E0B0E08093ED015E
:1006F0009093EE01A093EF01B093F0010895CF9293
:10070000DF92EF92FF920F931F93CF93DF93EC0151
:100710006B0177FD17C00E94F4037B018C010BC0B5
:10072000CE010E94A9018F81882311F081E00BC0C6
:100730008885882339F40E94F4036E197F096C15AB
:100740007D0574F380E0DF91CF911F910F91FF90B1
:10075000EF90DF90CF9008951F920F920FB60F92F7
:1007600011242F933F938F939F93AF93BF938091C7
:10077000F5019091F601A091F701B091F801309147
:10078000F9010196A11DB11D232F2D5F2D3720F0FA
:100790002D570196A11DB11D2093F9018093F501FC
:1007A0009093F601A093F701B093F8018091F101C5
:1007B0009091F201A091F301B091F4010196A11D75
:1007C000B11D8093F1019093F201A093F301B093D6
:1007D000F401BF91AF919F918F913F912F910F9015
:1007E0000FBE0F901F9018958FB7F8942091F501C8
:1007F0003091F6014091F7015091F8018FBFB90196
:10080000CA010895789484B5826084BD84B58160FE
:1008100084BD85B5826085BD85B5816085BDEEE608
:10082000F0E0808181608083E1E8F0E010828081E7
:1008300082608083808181608083E0E8F0E0808155
:1008400081608083E1EBF0E0808184608083E0EB75
:10085000F0E0808181608083EAE7F0E0808184605D
:1008600080838081826080838081816080838081B9
:10087000806880831092C100089508951F920F929E
:100880000FB60F9211242F933F934F938F939F9303
:10089000EF93FF938091C00082FD1DC04091C60080
:1008A00020913A0230913B022F5F3F4F2F733070FF
:1008B00080913C0290913D022817390771F0E09138
:1008C0003A02F0913B02E650FE4F408330933B02E8
:1008D00020933A0202C08091C600FF91EF919F9150
:1008E0008F914F913F912F910F900FBE0F901F90BE
:1008F0001895E0918E02F0918F02E05CFF4F81919C
:10090000919120813181821B930B8F739070892B81
:1009100011F00E943D0408951F920F920FB60F929E
:1009200011242F933F938F939F93EF93FF932091E5
:100930007E0230917F02809180029091810228177F
:10094000390731F48091C1008F7D8093C10014C0BC
:10095000E0918002F0918102E25CFD4F2081809164
:1009600080029091810201968F7390709093810222
:10097000809380022093C600FF91EF919F918F9109
:100980003F912F910F900FBE0F901F901895AF922F
:10099000BF92DF92EF92FF920F931F93CF93DF935B
:1009A000EC017A018B01DD24403081EE580780E0B4
:1009B000680780E0780711F0DD24D39491E0A92E38
:1009C000B12CEC89FD89DD2069F0C50108A002C0C9
:1009D000880F991F0A94E2F7808360E079E08DE345
:1009E00090E005C0108260E874E88EE190E0A80114
:1009F00097010E9487062150304040405040569554
:100A000047953795279580E12030380720F0DD2085
:100A100011F0DD24D6CFE889F9893083EA89FB8992
:100A2000208319A2EE89FF89408121E030E0C901CD
:100A30000C8C02C0880F991F0A94E2F7482B408360
:100A4000EE89FF894081C9010D8C02C0880F991F72
:100A50000A94E2F7482B4083EE89FF894081C9015F
:100A60000E8C02C0880F991F0A94E2F7482B40832E
:100A7000EE89FF8980810F8C02C0220F331F0A94F8
:100A8000E2F7209528232083DF91CF911F910F91CA
:100A9000FF90EF90DF90BF90AF900895DC011C961F
:100AA000ED91FC911D97E05CFF4F21913191808188
:100AB0009181281B390B2F733070C9010895DC0117
:100AC0001C96ED91FC911D97E05CFF4F20813181D8
:100AD000E054F040DF01AE5BBF4F8D919C911197C8
:100AE0002817390719F42FEF3FEF07C08D919C911C
:100AF000E80FF91F8081282F30E0C9010895DC013B
:100B00001C96ED91FC911D97E05CFF4F2081318197
:100B1000E054F040DF01AE5BBF4F8D919C91119787
:100B20002817390719F42FEF3FEF10C08D919C91D2
:100B30001197E80FF91F20818D919C9111970196D3
:100B40008F73907011969C938E9330E0C901089535
:100B5000DC0191968C919197882339F05496ED9110
:100B6000FC915597808186FFF9CF91961C9208954C
:100B7000CF93DF93EC01EE85FF85E05CFF4F208192
:100B80003181E054F0402F5F3F4F2F733070DF0111
:100B9000AE5BBF4F8D919C91119728173907D1F308
:100BA000E05CFF4F80819181E054F040E80FF91F35
:100BB0006083EE85FF85E05CFF4F31832083EE8903
:100BC000FF89208181E090E00F8C02C0880F991F7F
:100BD0000A94E2F7282B208381E089A3EC89FD8920
:100BE00080818064808381E090E0DF91CF910895DF
:100BF000109285021092840288EE93E0A0E0B0E0AB
:100C00008093860290938702A0938802B093890212
:100C10008DE191E090938302809382028AEF91E0CC
:100C200090938F0280938E028EE392E090939102D4
:100C30008093900285EC90E09093930280939202CF
:100C400084EC90E0909395028093940280EC90E085
:100C5000909397028093960281EC90E09093990292
:100C60008093980282EC90E090939B0280939A028A
:100C700086EC90E090939D0280939C0284E08093A8
:100C80009E0283E080939F0287E08093A00285E02C
:100C90008093A10281E08093A2020895CF93DF9315
:100CA0000E9402040E94E100C9E7D4E00E94C30050
:100CB0002097E1F30E947904F9CFCF92DF92EF926F
:100CC000FF920F931F93CF93DF937C016B018A01F7
:100CD000C0E0D0E00FC0D6016D916D01D701ED915C
:100CE000FC910190F081E02DC7010995C80FD91F33
:100CF000015010400115110571F7CE01DF91CF9120
:100D00001F910F91FF90EF90DF90CF900895A1E297
:100D10001A2EAA1BBB1BFD010DC0AA1FBB1FEE1F75
:100D2000FF1FA217B307E407F50720F0A21BB30BC0
:100D3000E40BF50B661F771F881F991F1A9469F73C
:100D400060957095809590959B01AC01BD01CF0198
:100D50000895EE0FFF1F0590F491E02D0994F8948B
:020D6000FFCFC3
:100D62000800A21300FE988B40000000007202B53A
:100D7200020000000051014F0100000000B8055DB3
:0A0D8200064E057F055F05A8050079
:00000001FF
